{
	"voting.sol": {
		"Voting": {
			"abi": [
				{
					"inputs": [],
					"stateMutability": "nonpayable",
					"type": "constructor"
				},
				{
					"inputs": [
						{
							"internalType": "string",
							"name": "name",
							"type": "string"
						}
					],
					"name": "addCandidate",
					"outputs": [],
					"stateMutability": "nonpayable",
					"type": "function"
				},
				{
					"inputs": [],
					"name": "admin",
					"outputs": [
						{
							"internalType": "address",
							"name": "",
							"type": "address"
						}
					],
					"stateMutability": "view",
					"type": "function"
				},
				{
					"inputs": [
						{
							"internalType": "uint256",
							"name": "",
							"type": "uint256"
						}
					],
					"name": "candidateIds",
					"outputs": [
						{
							"internalType": "uint256",
							"name": "",
							"type": "uint256"
						}
					],
					"stateMutability": "view",
					"type": "function"
				},
				{
					"inputs": [
						{
							"internalType": "uint256",
							"name": "",
							"type": "uint256"
						}
					],
					"name": "candidates",
					"outputs": [
						{
							"internalType": "uint256",
							"name": "id",
							"type": "uint256"
						},
						{
							"internalType": "string",
							"name": "name",
							"type": "string"
						},
						{
							"internalType": "uint256",
							"name": "voteCount",
							"type": "uint256"
						}
					],
					"stateMutability": "view",
					"type": "function"
				},
				{
					"inputs": [],
					"name": "candidatesCount",
					"outputs": [
						{
							"internalType": "uint256",
							"name": "",
							"type": "uint256"
						}
					],
					"stateMutability": "view",
					"type": "function"
				},
				{
					"inputs": [],
					"name": "getResults",
					"outputs": [
						{
							"internalType": "string",
							"name": "",
							"type": "string"
						},
						{
							"internalType": "uint256",
							"name": "",
							"type": "uint256"
						}
					],
					"stateMutability": "view",
					"type": "function"
				},
				{
					"inputs": [],
					"name": "listCandidates",
					"outputs": [
						{
							"components": [
								{
									"internalType": "uint256",
									"name": "id",
									"type": "uint256"
								},
								{
									"internalType": "string",
									"name": "name",
									"type": "string"
								},
								{
									"internalType": "uint256",
									"name": "voteCount",
									"type": "uint256"
								}
							],
							"internalType": "struct Voting.Candidate[]",
							"name": "",
							"type": "tuple[]"
						}
					],
					"stateMutability": "view",
					"type": "function"
				},
				{
					"inputs": [],
					"name": "totalVotes",
					"outputs": [
						{
							"internalType": "uint256",
							"name": "",
							"type": "uint256"
						}
					],
					"stateMutability": "view",
					"type": "function"
				},
				{
					"inputs": [
						{
							"internalType": "uint256",
							"name": "candidateId",
							"type": "uint256"
						}
					],
					"name": "vote",
					"outputs": [],
					"stateMutability": "nonpayable",
					"type": "function"
				},
				{
					"inputs": [
						{
							"internalType": "address",
							"name": "",
							"type": "address"
						}
					],
					"name": "voters",
					"outputs": [
						{
							"internalType": "bool",
							"name": "",
							"type": "bool"
						}
					],
					"stateMutability": "view",
					"type": "function"
				}
			],
			"devdoc": {
				"kind": "dev",
				"methods": {},
				"version": 1
			},
			"evm": {
				"assembly": "    /* \"voting.sol\":57:2025  contract Voting {... */\n  mstore(0x40, 0x80)\n    /* \"voting.sol\":431:480  constructor() {... */\n  callvalue\n  dup1\n  iszero\n  tag_1\n  jumpi\n  0x00\n  dup1\n  revert\ntag_1:\n  pop\n    /* \"voting.sol\":463:473  msg.sender */\n  caller\n    /* \"voting.sol\":455:460  admin */\n  0x00\n  dup1\n    /* \"voting.sol\":455:473  admin = msg.sender */\n  0x0100\n  exp\n  dup2\n  sload\n  dup2\n  0xffffffffffffffffffffffffffffffffffffffff\n  mul\n  not\n  and\n  swap1\n  dup4\n  0xffffffffffffffffffffffffffffffffffffffff\n  and\n  mul\n  or\n  swap1\n  sstore\n  pop\n    /* \"voting.sol\":57:2025  contract Voting {... */\n  dataSize(sub_0)\n  dup1\n  dataOffset(sub_0)\n  0x00\n  codecopy\n  0x00\n  return\nstop\n\nsub_0: assembly {\n        /* \"voting.sol\":57:2025  contract Voting {... */\n      mstore(0x40, 0x80)\n      callvalue\n      dup1\n      iszero\n      tag_1\n      jumpi\n      0x00\n      dup1\n      revert\n    tag_1:\n      pop\n      jumpi(tag_2, lt(calldatasize, 0x04))\n      shr(0xe0, calldataload(0x00))\n      dup1\n      0x462e91ec\n      gt\n      tag_13\n      jumpi\n      dup1\n      0x462e91ec\n      eq\n      tag_8\n      jumpi\n      dup1\n      0x4717f97c\n      eq\n      tag_9\n      jumpi\n      dup1\n      0xa3ec138d\n      eq\n      tag_10\n      jumpi\n      dup1\n      0xf0f5274e\n      eq\n      tag_11\n      jumpi\n      dup1\n      0xf851a440\n      eq\n      tag_12\n      jumpi\n      jump(tag_2)\n    tag_13:\n      dup1\n      0x0121b93f\n      eq\n      tag_3\n      jumpi\n      dup1\n      0x03016130\n      eq\n      tag_4\n      jumpi\n      dup1\n      0x0d15fd77\n      eq\n      tag_5\n      jumpi\n      dup1\n      0x2d35a8a2\n      eq\n      tag_6\n      jumpi\n      dup1\n      0x3477ee2e\n      eq\n      tag_7\n      jumpi\n    tag_2:\n      0x00\n      dup1\n      revert\n        /* \"voting.sol\":862:1166  function vote(uint candidateId) public {... */\n    tag_3:\n      tag_14\n      0x04\n      dup1\n      calldatasize\n      sub\n      dup2\n      add\n      swap1\n      tag_15\n      swap2\n      swap1\n      tag_16\n      jump\t// in\n    tag_15:\n      tag_17\n      jump\t// in\n    tag_14:\n      stop\n        /* \"voting.sol\":353:379  uint[] public candidateIds */\n    tag_4:\n      tag_18\n      0x04\n      dup1\n      calldatasize\n      sub\n      dup2\n      add\n      swap1\n      tag_19\n      swap2\n      swap1\n      tag_16\n      jump\t// in\n    tag_19:\n      tag_20\n      jump\t// in\n    tag_18:\n      mload(0x40)\n      tag_21\n      swap2\n      swap1\n      tag_22\n      jump\t// in\n    tag_21:\n      mload(0x40)\n      dup1\n      swap2\n      sub\n      swap1\n      return\n        /* \"voting.sol\":324:346  uint public totalVotes */\n    tag_5:\n      tag_23\n      tag_24\n      jump\t// in\n    tag_23:\n      mload(0x40)\n      tag_25\n      swap2\n      swap1\n      tag_22\n      jump\t// in\n    tag_25:\n      mload(0x40)\n      dup1\n      swap2\n      sub\n      swap1\n      return\n        /* \"voting.sol\":291:318  uint public candidatesCount */\n    tag_6:\n      tag_26\n      tag_27\n      jump\t// in\n    tag_26:\n      mload(0x40)\n      tag_28\n      swap2\n      swap1\n      tag_22\n      jump\t// in\n    tag_28:\n      mload(0x40)\n      dup1\n      swap2\n      sub\n      swap1\n      return\n        /* \"voting.sol\":241:285  mapping(uint => Candidate) public candidates */\n    tag_7:\n      tag_29\n      0x04\n      dup1\n      calldatasize\n      sub\n      dup2\n      add\n      swap1\n      tag_30\n      swap2\n      swap1\n      tag_16\n      jump\t// in\n    tag_30:\n      tag_31\n      jump\t// in\n    tag_29:\n      mload(0x40)\n      tag_32\n      swap4\n      swap3\n      swap2\n      swap1\n      tag_33\n      jump\t// in\n    tag_32:\n      mload(0x40)\n      dup1\n      swap2\n      sub\n      swap1\n      return\n        /* \"voting.sol\":513:828  function addCandidate(string memory name) public {... */\n    tag_8:\n      tag_34\n      0x04\n      dup1\n      calldatasize\n      sub\n      dup2\n      add\n      swap1\n      tag_35\n      swap2\n      swap1\n      tag_36\n      jump\t// in\n    tag_35:\n      tag_37\n      jump\t// in\n    tag_34:\n      stop\n        /* \"voting.sol\":1209:1662  function getResults() public view returns (string memory, uint) {... */\n    tag_9:\n      tag_38\n      tag_39\n      jump\t// in\n    tag_38:\n      mload(0x40)\n      tag_40\n      swap3\n      swap2\n      swap1\n      tag_41\n      jump\t// in\n    tag_40:\n      mload(0x40)\n      dup1\n      swap2\n      sub\n      swap1\n      return\n        /* \"voting.sol\":197:235  mapping(address => bool) public voters */\n    tag_10:\n      tag_42\n      0x04\n      dup1\n      calldatasize\n      sub\n      dup2\n      add\n      swap1\n      tag_43\n      swap2\n      swap1\n      tag_44\n      jump\t// in\n    tag_43:\n      tag_45\n      jump\t// in\n    tag_42:\n      mload(0x40)\n      tag_46\n      swap2\n      swap1\n      tag_47\n      jump\t// in\n    tag_46:\n      mload(0x40)\n      dup1\n      swap2\n      sub\n      swap1\n      return\n        /* \"voting.sol\":1701:2023  function listCandidates() public view returns (Candidate[] memory) {... */\n    tag_11:\n      tag_48\n      tag_49\n      jump\t// in\n    tag_48:\n      mload(0x40)\n      tag_50\n      swap2\n      swap1\n      tag_51\n      jump\t// in\n    tag_50:\n      mload(0x40)\n      dup1\n      swap2\n      sub\n      swap1\n      return\n        /* \"voting.sol\":171:191  address public admin */\n    tag_12:\n      tag_52\n      tag_53\n      jump\t// in\n    tag_52:\n      mload(0x40)\n      tag_54\n      swap2\n      swap1\n      tag_55\n      jump\t// in\n    tag_54:\n      mload(0x40)\n      dup1\n      swap2\n      sub\n      swap1\n      return\n        /* \"voting.sol\":862:1166  function vote(uint candidateId) public {... */\n    tag_17:\n        /* \"voting.sol\":920:926  voters */\n      0x01\n        /* \"voting.sol\":920:938  voters[msg.sender] */\n      0x00\n        /* \"voting.sol\":927:937  msg.sender */\n      caller\n        /* \"voting.sol\":920:938  voters[msg.sender] */\n      0xffffffffffffffffffffffffffffffffffffffff\n      and\n      0xffffffffffffffffffffffffffffffffffffffff\n      and\n      dup2\n      mstore\n      0x20\n      add\n      swap1\n      dup2\n      mstore\n      0x20\n      add\n      0x00\n      keccak256\n      0x00\n      swap1\n      sload\n      swap1\n      0x0100\n      exp\n      swap1\n      div\n      0xff\n      and\n        /* \"voting.sol\":919:938  !voters[msg.sender] */\n      iszero\n        /* \"voting.sol\":911:966  require(!voters[msg.sender], \"You have already voted.\") */\n      tag_57\n      jumpi\n      mload(0x40)\n      0x08c379a000000000000000000000000000000000000000000000000000000000\n      dup2\n      mstore\n      0x04\n      add\n      tag_58\n      swap1\n      tag_59\n      jump\t// in\n    tag_58:\n      mload(0x40)\n      dup1\n      swap2\n      sub\n      swap1\n      revert\n    tag_57:\n        /* \"voting.sol\":998:999  0 */\n      0x00\n        /* \"voting.sol\":984:995  candidateId */\n      dup2\n        /* \"voting.sol\":984:999  candidateId > 0 */\n      gt\n        /* \"voting.sol\":984:1033  candidateId > 0 && candidateId <= candidatesCount */\n      dup1\n      iszero\n      tag_60\n      jumpi\n      pop\n        /* \"voting.sol\":1018:1033  candidatesCount */\n      sload(0x03)\n        /* \"voting.sol\":1003:1014  candidateId */\n      dup2\n        /* \"voting.sol\":1003:1033  candidateId <= candidatesCount */\n      gt\n      iszero\n        /* \"voting.sol\":984:1033  candidateId > 0 && candidateId <= candidatesCount */\n    tag_60:\n        /* \"voting.sol\":976:1056  require(candidateId > 0 && candidateId <= candidatesCount, \"Invalid candidate.\") */\n      tag_61\n      jumpi\n      mload(0x40)\n      0x08c379a000000000000000000000000000000000000000000000000000000000\n      dup2\n      mstore\n      0x04\n      add\n      tag_62\n      swap1\n      tag_63\n      jump\t// in\n    tag_62:\n      mload(0x40)\n      dup1\n      swap2\n      sub\n      swap1\n      revert\n    tag_61:\n        /* \"voting.sol\":1088:1092  true */\n      0x01\n        /* \"voting.sol\":1067:1073  voters */\n      dup1\n        /* \"voting.sol\":1067:1085  voters[msg.sender] */\n      0x00\n        /* \"voting.sol\":1074:1084  msg.sender */\n      caller\n        /* \"voting.sol\":1067:1085  voters[msg.sender] */\n      0xffffffffffffffffffffffffffffffffffffffff\n      and\n      0xffffffffffffffffffffffffffffffffffffffff\n      and\n      dup2\n      mstore\n      0x20\n      add\n      swap1\n      dup2\n      mstore\n      0x20\n      add\n      0x00\n      keccak256\n      0x00\n        /* \"voting.sol\":1067:1092  voters[msg.sender] = true */\n      0x0100\n      exp\n      dup2\n      sload\n      dup2\n      0xff\n      mul\n      not\n      and\n      swap1\n      dup4\n      iszero\n      iszero\n      mul\n      or\n      swap1\n      sstore\n      pop\n        /* \"voting.sol\":1102:1112  candidates */\n      0x02\n        /* \"voting.sol\":1102:1125  candidates[candidateId] */\n      0x00\n        /* \"voting.sol\":1113:1124  candidateId */\n      dup3\n        /* \"voting.sol\":1102:1125  candidates[candidateId] */\n      dup2\n      mstore\n      0x20\n      add\n      swap1\n      dup2\n      mstore\n      0x20\n      add\n      0x00\n      keccak256\n        /* \"voting.sol\":1102:1135  candidates[candidateId].voteCount */\n      0x02\n      add\n      0x00\n        /* \"voting.sol\":1102:1137  candidates[candidateId].voteCount++ */\n      dup2\n      sload\n      dup1\n      swap3\n      swap2\n      swap1\n      tag_64\n      swap1\n      tag_65\n      jump\t// in\n    tag_64:\n      swap2\n      swap1\n      pop\n      sstore\n      pop\n        /* \"voting.sol\":1147:1157  totalVotes */\n      0x04\n      0x00\n        /* \"voting.sol\":1147:1159  totalVotes++ */\n      dup2\n      sload\n      dup1\n      swap3\n      swap2\n      swap1\n      tag_66\n      swap1\n      tag_65\n      jump\t// in\n    tag_66:\n      swap2\n      swap1\n      pop\n      sstore\n      pop\n        /* \"voting.sol\":862:1166  function vote(uint candidateId) public {... */\n      pop\n      jump\t// out\n        /* \"voting.sol\":353:379  uint[] public candidateIds */\n    tag_20:\n      0x05\n      dup2\n      dup2\n      sload\n      dup2\n      lt\n      tag_67\n      jumpi\n      0x00\n      dup1\n      revert\n    tag_67:\n      swap1\n      0x00\n      mstore\n      keccak256(0x00, 0x20)\n      add\n      0x00\n      swap2\n      pop\n      swap1\n      pop\n      sload\n      dup2\n      jump\t// out\n        /* \"voting.sol\":324:346  uint public totalVotes */\n    tag_24:\n      sload(0x04)\n      dup2\n      jump\t// out\n        /* \"voting.sol\":291:318  uint public candidatesCount */\n    tag_27:\n      sload(0x03)\n      dup2\n      jump\t// out\n        /* \"voting.sol\":241:285  mapping(uint => Candidate) public candidates */\n    tag_31:\n      mstore(0x20, 0x02)\n      dup1\n      0x00\n      mstore\n      keccak256(0x00, 0x40)\n      0x00\n      swap2\n      pop\n      swap1\n      pop\n      dup1\n      0x00\n      add\n      sload\n      swap1\n      dup1\n      0x01\n      add\n      dup1\n      sload\n      tag_69\n      swap1\n      tag_70\n      jump\t// in\n    tag_69:\n      dup1\n      0x1f\n      add\n      0x20\n      dup1\n      swap2\n      div\n      mul\n      0x20\n      add\n      mload(0x40)\n      swap1\n      dup2\n      add\n      0x40\n      mstore\n      dup1\n      swap3\n      swap2\n      swap1\n      dup2\n      dup2\n      mstore\n      0x20\n      add\n      dup3\n      dup1\n      sload\n      tag_71\n      swap1\n      tag_70\n      jump\t// in\n    tag_71:\n      dup1\n      iszero\n      tag_72\n      jumpi\n      dup1\n      0x1f\n      lt\n      tag_73\n      jumpi\n      0x0100\n      dup1\n      dup4\n      sload\n      div\n      mul\n      dup4\n      mstore\n      swap2\n      0x20\n      add\n      swap2\n      jump(tag_72)\n    tag_73:\n      dup3\n      add\n      swap2\n      swap1\n      0x00\n      mstore\n      keccak256(0x00, 0x20)\n      swap1\n    tag_74:\n      dup2\n      sload\n      dup2\n      mstore\n      swap1\n      0x01\n      add\n      swap1\n      0x20\n      add\n      dup1\n      dup4\n      gt\n      tag_74\n      jumpi\n      dup3\n      swap1\n      sub\n      0x1f\n      and\n      dup3\n      add\n      swap2\n    tag_72:\n      pop\n      pop\n      pop\n      pop\n      pop\n      swap1\n      dup1\n      0x02\n      add\n      sload\n      swap1\n      pop\n      dup4\n      jump\t// out\n        /* \"voting.sol\":513:828  function addCandidate(string memory name) public {... */\n    tag_37:\n        /* \"voting.sol\":594:599  admin */\n      0x00\n      dup1\n      sload\n      swap1\n      0x0100\n      exp\n      swap1\n      div\n      0xffffffffffffffffffffffffffffffffffffffff\n      and\n        /* \"voting.sol\":580:599  msg.sender == admin */\n      0xffffffffffffffffffffffffffffffffffffffff\n      and\n        /* \"voting.sol\":580:590  msg.sender */\n      caller\n        /* \"voting.sol\":580:599  msg.sender == admin */\n      0xffffffffffffffffffffffffffffffffffffffff\n      and\n      eq\n        /* \"voting.sol\":572:633  require(msg.sender == admin, \"Only admin can add candidates\") */\n      tag_76\n      jumpi\n      mload(0x40)\n      0x08c379a000000000000000000000000000000000000000000000000000000000\n      dup2\n      mstore\n      0x04\n      add\n      tag_77\n      swap1\n      tag_78\n      jump\t// in\n    tag_77:\n      mload(0x40)\n      dup1\n      swap2\n      sub\n      swap1\n      revert\n    tag_76:\n        /* \"voting.sol\":643:658  candidatesCount */\n      0x03\n      0x00\n        /* \"voting.sol\":643:660  candidatesCount++ */\n      dup2\n      sload\n      dup1\n      swap3\n      swap2\n      swap1\n      tag_79\n      swap1\n      tag_65\n      jump\t// in\n    tag_79:\n      swap2\n      swap1\n      pop\n      sstore\n      pop\n        /* \"voting.sol\":700:735  Candidate(candidatesCount, name, 0) */\n      mload(0x40)\n      dup1\n      0x60\n      add\n      0x40\n      mstore\n      dup1\n        /* \"voting.sol\":710:725  candidatesCount */\n      sload(0x03)\n        /* \"voting.sol\":700:735  Candidate(candidatesCount, name, 0) */\n      dup2\n      mstore\n      0x20\n      add\n        /* \"voting.sol\":727:731  name */\n      dup3\n        /* \"voting.sol\":700:735  Candidate(candidatesCount, name, 0) */\n      dup2\n      mstore\n      0x20\n      add\n        /* \"voting.sol\":733:734  0 */\n      0x00\n        /* \"voting.sol\":700:735  Candidate(candidatesCount, name, 0) */\n      dup2\n      mstore\n      pop\n        /* \"voting.sol\":670:680  candidates */\n      0x02\n        /* \"voting.sol\":670:697  candidates[candidatesCount] */\n      0x00\n        /* \"voting.sol\":681:696  candidatesCount */\n      sload(0x03)\n        /* \"voting.sol\":670:697  candidates[candidatesCount] */\n      dup2\n      mstore\n      0x20\n      add\n      swap1\n      dup2\n      mstore\n      0x20\n      add\n      0x00\n      keccak256\n        /* \"voting.sol\":670:735  candidates[candidatesCount] = Candidate(candidatesCount, name, 0) */\n      0x00\n      dup3\n      add\n      mload\n      dup2\n      0x00\n      add\n      sstore\n      0x20\n      dup3\n      add\n      mload\n      dup2\n      0x01\n      add\n      swap1\n      dup2\n      tag_80\n      swap2\n      swap1\n      tag_81\n      jump\t// in\n    tag_80:\n      pop\n      0x40\n      dup3\n      add\n      mload\n      dup2\n      0x02\n      add\n      sstore\n      swap1\n      pop\n      pop\n        /* \"voting.sol\":745:757  candidateIds */\n      0x05\n        /* \"voting.sol\":763:778  candidatesCount */\n      sload(0x03)\n        /* \"voting.sol\":745:779  candidateIds.push(candidatesCount) */\n      swap1\n      dup1\n      0x01\n      dup2\n      sload\n      add\n      dup1\n      dup3\n      sstore\n      dup1\n      swap2\n      pop\n      pop\n      0x01\n      swap1\n      sub\n      swap1\n      0x00\n      mstore\n      keccak256(0x00, 0x20)\n      add\n      0x00\n      swap1\n      swap2\n      swap1\n      swap2\n      swap1\n      swap2\n      pop\n      sstore\n        /* \"voting.sol\":513:828  function addCandidate(string memory name) public {... */\n      pop\n      jump\t// out\n        /* \"voting.sol\":1209:1662  function getResults() public view returns (string memory, uint) {... */\n    tag_39:\n        /* \"voting.sol\":1252:1265  string memory */\n      0x60\n        /* \"voting.sol\":1267:1271  uint */\n      0x00\n        /* \"voting.sol\":1283:1304  uint winningVoteCount */\n      dup1\n        /* \"voting.sol\":1307:1308  0 */\n      0x00\n        /* \"voting.sol\":1283:1308  uint winningVoteCount = 0 */\n      swap1\n      pop\n        /* \"voting.sol\":1318:1341  uint winningCandidateId */\n      0x00\n        /* \"voting.sol\":1357:1363  uint i */\n      dup1\n        /* \"voting.sol\":1366:1367  1 */\n      0x01\n        /* \"voting.sol\":1357:1367  uint i = 1 */\n      swap1\n      pop\n        /* \"voting.sol\":1352:1583  for (uint i = 1; i <= candidatesCount; i++) {... */\n    tag_84:\n        /* \"voting.sol\":1374:1389  candidatesCount */\n      sload(0x03)\n        /* \"voting.sol\":1369:1370  i */\n      dup2\n        /* \"voting.sol\":1369:1389  i <= candidatesCount */\n      gt\n        /* \"voting.sol\":1352:1583  for (uint i = 1; i <= candidatesCount; i++) {... */\n      tag_85\n      jumpi\n        /* \"voting.sol\":1440:1456  winningVoteCount */\n      dup3\n        /* \"voting.sol\":1414:1424  candidates */\n      0x02\n        /* \"voting.sol\":1414:1427  candidates[i] */\n      0x00\n        /* \"voting.sol\":1425:1426  i */\n      dup4\n        /* \"voting.sol\":1414:1427  candidates[i] */\n      dup2\n      mstore\n      0x20\n      add\n      swap1\n      dup2\n      mstore\n      0x20\n      add\n      0x00\n      keccak256\n        /* \"voting.sol\":1414:1437  candidates[i].voteCount */\n      0x02\n      add\n      sload\n        /* \"voting.sol\":1414:1456  candidates[i].voteCount > winningVoteCount */\n      gt\n        /* \"voting.sol\":1410:1573  if (candidates[i].voteCount > winningVoteCount) {... */\n      iszero\n      tag_87\n      jumpi\n        /* \"voting.sol\":1495:1505  candidates */\n      0x02\n        /* \"voting.sol\":1495:1508  candidates[i] */\n      0x00\n        /* \"voting.sol\":1506:1507  i */\n      dup3\n        /* \"voting.sol\":1495:1508  candidates[i] */\n      dup2\n      mstore\n      0x20\n      add\n      swap1\n      dup2\n      mstore\n      0x20\n      add\n      0x00\n      keccak256\n        /* \"voting.sol\":1495:1518  candidates[i].voteCount */\n      0x02\n      add\n      sload\n        /* \"voting.sol\":1476:1518  winningVoteCount = candidates[i].voteCount */\n      swap3\n      pop\n        /* \"voting.sol\":1557:1558  i */\n      dup1\n        /* \"voting.sol\":1536:1558  winningCandidateId = i */\n      swap2\n      pop\n        /* \"voting.sol\":1410:1573  if (candidates[i].voteCount > winningVoteCount) {... */\n    tag_87:\n        /* \"voting.sol\":1391:1394  i++ */\n      dup1\n      dup1\n      tag_88\n      swap1\n      tag_65\n      jump\t// in\n    tag_88:\n      swap2\n      pop\n      pop\n        /* \"voting.sol\":1352:1583  for (uint i = 1; i <= candidatesCount; i++) {... */\n      jump(tag_84)\n    tag_85:\n      pop\n        /* \"voting.sol\":1601:1611  candidates */\n      0x02\n        /* \"voting.sol\":1601:1631  candidates[winningCandidateId] */\n      0x00\n        /* \"voting.sol\":1612:1630  winningCandidateId */\n      dup3\n        /* \"voting.sol\":1601:1631  candidates[winningCandidateId] */\n      dup2\n      mstore\n      0x20\n      add\n      swap1\n      dup2\n      mstore\n      0x20\n      add\n      0x00\n      keccak256\n        /* \"voting.sol\":1601:1636  candidates[winningCandidateId].name */\n      0x01\n      add\n        /* \"voting.sol\":1638:1654  winningVoteCount */\n      dup3\n        /* \"voting.sol\":1593:1655  return (candidates[winningCandidateId].name, winningVoteCount) */\n      dup2\n      dup1\n      sload\n      tag_89\n      swap1\n      tag_70\n      jump\t// in\n    tag_89:\n      dup1\n      0x1f\n      add\n      0x20\n      dup1\n      swap2\n      div\n      mul\n      0x20\n      add\n      mload(0x40)\n      swap1\n      dup2\n      add\n      0x40\n      mstore\n      dup1\n      swap3\n      swap2\n      swap1\n      dup2\n      dup2\n      mstore\n      0x20\n      add\n      dup3\n      dup1\n      sload\n      tag_90\n      swap1\n      tag_70\n      jump\t// in\n    tag_90:\n      dup1\n      iszero\n      tag_91\n      jumpi\n      dup1\n      0x1f\n      lt\n      tag_92\n      jumpi\n      0x0100\n      dup1\n      dup4\n      sload\n      div\n      mul\n      dup4\n      mstore\n      swap2\n      0x20\n      add\n      swap2\n      jump(tag_91)\n    tag_92:\n      dup3\n      add\n      swap2\n      swap1\n      0x00\n      mstore\n      keccak256(0x00, 0x20)\n      swap1\n    tag_93:\n      dup2\n      sload\n      dup2\n      mstore\n      swap1\n      0x01\n      add\n      swap1\n      0x20\n      add\n      dup1\n      dup4\n      gt\n      tag_93\n      jumpi\n      dup3\n      swap1\n      sub\n      0x1f\n      and\n      dup3\n      add\n      swap2\n    tag_91:\n      pop\n      pop\n      pop\n      pop\n      pop\n      swap2\n      pop\n      swap4\n      pop\n      swap4\n      pop\n      pop\n      pop\n        /* \"voting.sol\":1209:1662  function getResults() public view returns (string memory, uint) {... */\n      swap1\n      swap2\n      jump\t// out\n        /* \"voting.sol\":197:235  mapping(address => bool) public voters */\n    tag_45:\n      mstore(0x20, 0x01)\n      dup1\n      0x00\n      mstore\n      keccak256(0x00, 0x40)\n      0x00\n      swap2\n      pop\n      sload\n      swap1\n      0x0100\n      exp\n      swap1\n      div\n      0xff\n      and\n      dup2\n      jump\t// out\n        /* \"voting.sol\":1701:2023  function listCandidates() public view returns (Candidate[] memory) {... */\n    tag_49:\n        /* \"voting.sol\":1748:1766  Candidate[] memory */\n      0x60\n        /* \"voting.sol\":1778:1810  Candidate[] memory allCandidates */\n      0x00\n        /* \"voting.sol\":1829:1841  candidateIds */\n      0x05\n        /* \"voting.sol\":1829:1848  candidateIds.length */\n      dup1\n      sload\n      swap1\n      pop\n        /* \"voting.sol\":1813:1849  new Candidate[](candidateIds.length) */\n      0xffffffffffffffff\n      dup2\n      gt\n      iszero\n      tag_95\n      jumpi\n      tag_96\n      tag_97\n      jump\t// in\n    tag_96:\n    tag_95:\n      mload(0x40)\n      swap1\n      dup1\n      dup3\n      mstore\n      dup1\n      0x20\n      mul\n      0x20\n      add\n      dup3\n      add\n      0x40\n      mstore\n      dup1\n      iszero\n      tag_98\n      jumpi\n      dup2\n      0x20\n      add\n    tag_99:\n      tag_100\n      tag_101\n      jump\t// in\n    tag_100:\n      dup2\n      mstore\n      0x20\n      add\n      swap1\n      0x01\n      swap1\n      sub\n      swap1\n      dup2\n      tag_99\n      jumpi\n      swap1\n      pop\n    tag_98:\n      pop\n        /* \"voting.sol\":1778:1849  Candidate[] memory allCandidates = new Candidate[](candidateIds.length) */\n      swap1\n      pop\n        /* \"voting.sol\":1873:1879  uint i */\n      0x00\n        /* \"voting.sol\":1868:1986  for (uint i = 0; i < candidateIds.length; i++) {... */\n    tag_102:\n        /* \"voting.sol\":1889:1901  candidateIds */\n      0x05\n        /* \"voting.sol\":1889:1908  candidateIds.length */\n      dup1\n      sload\n      swap1\n      pop\n        /* \"voting.sol\":1885:1886  i */\n      dup2\n        /* \"voting.sol\":1885:1908  i < candidateIds.length */\n      lt\n        /* \"voting.sol\":1868:1986  for (uint i = 0; i < candidateIds.length; i++) {... */\n      iszero\n      tag_103\n      jumpi\n        /* \"voting.sol\":1948:1958  candidates */\n      0x02\n        /* \"voting.sol\":1948:1975  candidates[candidateIds[i]] */\n      0x00\n        /* \"voting.sol\":1959:1971  candidateIds */\n      0x05\n        /* \"voting.sol\":1972:1973  i */\n      dup4\n        /* \"voting.sol\":1959:1974  candidateIds[i] */\n      dup2\n      sload\n      dup2\n      lt\n      tag_105\n      jumpi\n      tag_106\n      tag_107\n      jump\t// in\n    tag_106:\n    tag_105:\n      swap1\n      0x00\n      mstore\n      keccak256(0x00, 0x20)\n      add\n      sload\n        /* \"voting.sol\":1948:1975  candidates[candidateIds[i]] */\n      dup2\n      mstore\n      0x20\n      add\n      swap1\n      dup2\n      mstore\n      0x20\n      add\n      0x00\n      keccak256\n        /* \"voting.sol\":1929:1975  allCandidates[i] = candidates[candidateIds[i]] */\n      mload(0x40)\n      dup1\n      0x60\n      add\n      0x40\n      mstore\n      swap1\n      dup2\n      0x00\n      dup3\n      add\n      sload\n      dup2\n      mstore\n      0x20\n      add\n      0x01\n      dup3\n      add\n      dup1\n      sload\n      tag_109\n      swap1\n      tag_70\n      jump\t// in\n    tag_109:\n      dup1\n      0x1f\n      add\n      0x20\n      dup1\n      swap2\n      div\n      mul\n      0x20\n      add\n      mload(0x40)\n      swap1\n      dup2\n      add\n      0x40\n      mstore\n      dup1\n      swap3\n      swap2\n      swap1\n      dup2\n      dup2\n      mstore\n      0x20\n      add\n      dup3\n      dup1\n      sload\n      tag_110\n      swap1\n      tag_70\n      jump\t// in\n    tag_110:\n      dup1\n      iszero\n      tag_111\n      jumpi\n      dup1\n      0x1f\n      lt\n      tag_112\n      jumpi\n      0x0100\n      dup1\n      dup4\n      sload\n      div\n      mul\n      dup4\n      mstore\n      swap2\n      0x20\n      add\n      swap2\n      jump(tag_111)\n    tag_112:\n      dup3\n      add\n      swap2\n      swap1\n      0x00\n      mstore\n      keccak256(0x00, 0x20)\n      swap1\n    tag_113:\n      dup2\n      sload\n      dup2\n      mstore\n      swap1\n      0x01\n      add\n      swap1\n      0x20\n      add\n      dup1\n      dup4\n      gt\n      tag_113\n      jumpi\n      dup3\n      swap1\n      sub\n      0x1f\n      and\n      dup3\n      add\n      swap2\n    tag_111:\n      pop\n      pop\n      pop\n      pop\n      pop\n      dup2\n      mstore\n      0x20\n      add\n      0x02\n      dup3\n      add\n      sload\n      dup2\n      mstore\n      pop\n      pop\n        /* \"voting.sol\":1929:1942  allCandidates */\n      dup3\n        /* \"voting.sol\":1943:1944  i */\n      dup3\n        /* \"voting.sol\":1929:1945  allCandidates[i] */\n      dup2\n      mload\n      dup2\n      lt\n      tag_114\n      jumpi\n      tag_115\n      tag_107\n      jump\t// in\n    tag_115:\n    tag_114:\n      0x20\n      mul\n      0x20\n      add\n      add\n        /* \"voting.sol\":1929:1975  allCandidates[i] = candidates[candidateIds[i]] */\n      dup2\n      swap1\n      mstore\n      pop\n        /* \"voting.sol\":1910:1913  i++ */\n      dup1\n      dup1\n      0x01\n      add\n      swap2\n      pop\n      pop\n        /* \"voting.sol\":1868:1986  for (uint i = 0; i < candidateIds.length; i++) {... */\n      jump(tag_102)\n    tag_103:\n      pop\n        /* \"voting.sol\":2003:2016  allCandidates */\n      dup1\n        /* \"voting.sol\":1996:2016  return allCandidates */\n      swap2\n      pop\n      pop\n        /* \"voting.sol\":1701:2023  function listCandidates() public view returns (Candidate[] memory) {... */\n      swap1\n      jump\t// out\n        /* \"voting.sol\":171:191  address public admin */\n    tag_53:\n      0x00\n      dup1\n      sload\n      swap1\n      0x0100\n      exp\n      swap1\n      div\n      0xffffffffffffffffffffffffffffffffffffffff\n      and\n      dup2\n      jump\t// out\n    tag_101:\n      mload(0x40)\n      dup1\n      0x60\n      add\n      0x40\n      mstore\n      dup1\n      0x00\n      dup2\n      mstore\n      0x20\n      add\n      0x60\n      dup2\n      mstore\n      0x20\n      add\n      0x00\n      dup2\n      mstore\n      pop\n      swap1\n      jump\t// out\n        /* \"#utility.yul\":7:82   */\n    tag_116:\n        /* \"#utility.yul\":40:46   */\n      0x00\n        /* \"#utility.yul\":73:75   */\n      0x40\n        /* \"#utility.yul\":67:76   */\n      mload\n        /* \"#utility.yul\":57:76   */\n      swap1\n      pop\n        /* \"#utility.yul\":7:82   */\n      swap1\n      jump\t// out\n        /* \"#utility.yul\":88:205   */\n    tag_117:\n        /* \"#utility.yul\":197:198   */\n      0x00\n        /* \"#utility.yul\":194:195   */\n      dup1\n        /* \"#utility.yul\":187:199   */\n      revert\n        /* \"#utility.yul\":211:328   */\n    tag_118:\n        /* \"#utility.yul\":320:321   */\n      0x00\n        /* \"#utility.yul\":317:318   */\n      dup1\n        /* \"#utility.yul\":310:322   */\n      revert\n        /* \"#utility.yul\":334:411   */\n    tag_119:\n        /* \"#utility.yul\":371:378   */\n      0x00\n        /* \"#utility.yul\":400:405   */\n      dup2\n        /* \"#utility.yul\":389:405   */\n      swap1\n      pop\n        /* \"#utility.yul\":334:411   */\n      swap2\n      swap1\n      pop\n      jump\t// out\n        /* \"#utility.yul\":417:539   */\n    tag_120:\n        /* \"#utility.yul\":490:514   */\n      tag_182\n        /* \"#utility.yul\":508:513   */\n      dup2\n        /* \"#utility.yul\":490:514   */\n      tag_119\n      jump\t// in\n    tag_182:\n        /* \"#utility.yul\":483:488   */\n      dup2\n        /* \"#utility.yul\":480:515   */\n      eq\n        /* \"#utility.yul\":470:533   */\n      tag_183\n      jumpi\n        /* \"#utility.yul\":529:530   */\n      0x00\n        /* \"#utility.yul\":526:527   */\n      dup1\n        /* \"#utility.yul\":519:531   */\n      revert\n        /* \"#utility.yul\":470:533   */\n    tag_183:\n        /* \"#utility.yul\":417:539   */\n      pop\n      jump\t// out\n        /* \"#utility.yul\":545:684   */\n    tag_121:\n        /* \"#utility.yul\":591:596   */\n      0x00\n        /* \"#utility.yul\":629:635   */\n      dup2\n        /* \"#utility.yul\":616:636   */\n      calldataload\n        /* \"#utility.yul\":607:636   */\n      swap1\n      pop\n        /* \"#utility.yul\":645:678   */\n      tag_185\n        /* \"#utility.yul\":672:677   */\n      dup2\n        /* \"#utility.yul\":645:678   */\n      tag_120\n      jump\t// in\n    tag_185:\n        /* \"#utility.yul\":545:684   */\n      swap3\n      swap2\n      pop\n      pop\n      jump\t// out\n        /* \"#utility.yul\":690:1019   */\n    tag_16:\n        /* \"#utility.yul\":749:755   */\n      0x00\n        /* \"#utility.yul\":798:800   */\n      0x20\n        /* \"#utility.yul\":786:795   */\n      dup3\n        /* \"#utility.yul\":777:784   */\n      dup5\n        /* \"#utility.yul\":773:796   */\n      sub\n        /* \"#utility.yul\":769:801   */\n      slt\n        /* \"#utility.yul\":766:885   */\n      iszero\n      tag_187\n      jumpi\n        /* \"#utility.yul\":804:883   */\n      tag_188\n      tag_117\n      jump\t// in\n    tag_188:\n        /* \"#utility.yul\":766:885   */\n    tag_187:\n        /* \"#utility.yul\":924:925   */\n      0x00\n        /* \"#utility.yul\":949:1002   */\n      tag_189\n        /* \"#utility.yul\":994:1001   */\n      dup5\n        /* \"#utility.yul\":985:991   */\n      dup3\n        /* \"#utility.yul\":974:983   */\n      dup6\n        /* \"#utility.yul\":970:992   */\n      add\n        /* \"#utility.yul\":949:1002   */\n      tag_121\n      jump\t// in\n    tag_189:\n        /* \"#utility.yul\":939:1002   */\n      swap2\n      pop\n        /* \"#utility.yul\":895:1012   */\n      pop\n        /* \"#utility.yul\":690:1019   */\n      swap3\n      swap2\n      pop\n      pop\n      jump\t// out\n        /* \"#utility.yul\":1025:1143   */\n    tag_122:\n        /* \"#utility.yul\":1112:1136   */\n      tag_191\n        /* \"#utility.yul\":1130:1135   */\n      dup2\n        /* \"#utility.yul\":1112:1136   */\n      tag_119\n      jump\t// in\n    tag_191:\n        /* \"#utility.yul\":1107:1110   */\n      dup3\n        /* \"#utility.yul\":1100:1137   */\n      mstore\n        /* \"#utility.yul\":1025:1143   */\n      pop\n      pop\n      jump\t// out\n        /* \"#utility.yul\":1149:1371   */\n    tag_22:\n        /* \"#utility.yul\":1242:1246   */\n      0x00\n        /* \"#utility.yul\":1280:1282   */\n      0x20\n        /* \"#utility.yul\":1269:1278   */\n      dup3\n        /* \"#utility.yul\":1265:1283   */\n      add\n        /* \"#utility.yul\":1257:1283   */\n      swap1\n      pop\n        /* \"#utility.yul\":1293:1364   */\n      tag_193\n        /* \"#utility.yul\":1361:1362   */\n      0x00\n        /* \"#utility.yul\":1350:1359   */\n      dup4\n        /* \"#utility.yul\":1346:1363   */\n      add\n        /* \"#utility.yul\":1337:1343   */\n      dup5\n        /* \"#utility.yul\":1293:1364   */\n      tag_122\n      jump\t// in\n    tag_193:\n        /* \"#utility.yul\":1149:1371   */\n      swap3\n      swap2\n      pop\n      pop\n      jump\t// out\n        /* \"#utility.yul\":1377:1476   */\n    tag_123:\n        /* \"#utility.yul\":1429:1435   */\n      0x00\n        /* \"#utility.yul\":1463:1468   */\n      dup2\n        /* \"#utility.yul\":1457:1469   */\n      mload\n        /* \"#utility.yul\":1447:1469   */\n      swap1\n      pop\n        /* \"#utility.yul\":1377:1476   */\n      swap2\n      swap1\n      pop\n      jump\t// out\n        /* \"#utility.yul\":1482:1651   */\n    tag_124:\n        /* \"#utility.yul\":1566:1577   */\n      0x00\n        /* \"#utility.yul\":1600:1606   */\n      dup3\n        /* \"#utility.yul\":1595:1598   */\n      dup3\n        /* \"#utility.yul\":1588:1607   */\n      mstore\n        /* \"#utility.yul\":1640:1644   */\n      0x20\n        /* \"#utility.yul\":1635:1638   */\n      dup3\n        /* \"#utility.yul\":1631:1645   */\n      add\n        /* \"#utility.yul\":1616:1645   */\n      swap1\n      pop\n        /* \"#utility.yul\":1482:1651   */\n      swap3\n      swap2\n      pop\n      pop\n      jump\t// out\n        /* \"#utility.yul\":1657:1796   */\n    tag_125:\n        /* \"#utility.yul\":1746:1752   */\n      dup3\n        /* \"#utility.yul\":1741:1744   */\n      dup2\n        /* \"#utility.yul\":1736:1739   */\n      dup4\n        /* \"#utility.yul\":1730:1753   */\n      mcopy\n        /* \"#utility.yul\":1787:1788   */\n      0x00\n        /* \"#utility.yul\":1778:1784   */\n      dup4\n        /* \"#utility.yul\":1773:1776   */\n      dup4\n        /* \"#utility.yul\":1769:1785   */\n      add\n        /* \"#utility.yul\":1762:1789   */\n      mstore\n        /* \"#utility.yul\":1657:1796   */\n      pop\n      pop\n      pop\n      jump\t// out\n        /* \"#utility.yul\":1802:1904   */\n    tag_126:\n        /* \"#utility.yul\":1843:1849   */\n      0x00\n        /* \"#utility.yul\":1894:1896   */\n      0x1f\n        /* \"#utility.yul\":1890:1897   */\n      not\n        /* \"#utility.yul\":1885:1887   */\n      0x1f\n        /* \"#utility.yul\":1878:1883   */\n      dup4\n        /* \"#utility.yul\":1874:1888   */\n      add\n        /* \"#utility.yul\":1870:1898   */\n      and\n        /* \"#utility.yul\":1860:1898   */\n      swap1\n      pop\n        /* \"#utility.yul\":1802:1904   */\n      swap2\n      swap1\n      pop\n      jump\t// out\n        /* \"#utility.yul\":1910:2287   */\n    tag_127:\n        /* \"#utility.yul\":1998:2001   */\n      0x00\n        /* \"#utility.yul\":2026:2065   */\n      tag_199\n        /* \"#utility.yul\":2059:2064   */\n      dup3\n        /* \"#utility.yul\":2026:2065   */\n      tag_123\n      jump\t// in\n    tag_199:\n        /* \"#utility.yul\":2081:2152   */\n      tag_200\n        /* \"#utility.yul\":2145:2151   */\n      dup2\n        /* \"#utility.yul\":2140:2143   */\n      dup6\n        /* \"#utility.yul\":2081:2152   */\n      tag_124\n      jump\t// in\n    tag_200:\n        /* \"#utility.yul\":2074:2152   */\n      swap4\n      pop\n        /* \"#utility.yul\":2161:2226   */\n      tag_201\n        /* \"#utility.yul\":2219:2225   */\n      dup2\n        /* \"#utility.yul\":2214:2217   */\n      dup6\n        /* \"#utility.yul\":2207:2211   */\n      0x20\n        /* \"#utility.yul\":2200:2205   */\n      dup7\n        /* \"#utility.yul\":2196:2212   */\n      add\n        /* \"#utility.yul\":2161:2226   */\n      tag_125\n      jump\t// in\n    tag_201:\n        /* \"#utility.yul\":2251:2280   */\n      tag_202\n        /* \"#utility.yul\":2273:2279   */\n      dup2\n        /* \"#utility.yul\":2251:2280   */\n      tag_126\n      jump\t// in\n    tag_202:\n        /* \"#utility.yul\":2246:2249   */\n      dup5\n        /* \"#utility.yul\":2242:2281   */\n      add\n        /* \"#utility.yul\":2235:2281   */\n      swap2\n      pop\n        /* \"#utility.yul\":2002:2287   */\n      pop\n        /* \"#utility.yul\":1910:2287   */\n      swap3\n      swap2\n      pop\n      pop\n      jump\t// out\n        /* \"#utility.yul\":2293:2826   */\n    tag_33:\n        /* \"#utility.yul\":2462:2466   */\n      0x00\n        /* \"#utility.yul\":2500:2502   */\n      0x60\n        /* \"#utility.yul\":2489:2498   */\n      dup3\n        /* \"#utility.yul\":2485:2503   */\n      add\n        /* \"#utility.yul\":2477:2503   */\n      swap1\n      pop\n        /* \"#utility.yul\":2513:2584   */\n      tag_204\n        /* \"#utility.yul\":2581:2582   */\n      0x00\n        /* \"#utility.yul\":2570:2579   */\n      dup4\n        /* \"#utility.yul\":2566:2583   */\n      add\n        /* \"#utility.yul\":2557:2563   */\n      dup7\n        /* \"#utility.yul\":2513:2584   */\n      tag_122\n      jump\t// in\n    tag_204:\n        /* \"#utility.yul\":2631:2640   */\n      dup2\n        /* \"#utility.yul\":2625:2629   */\n      dup2\n        /* \"#utility.yul\":2621:2641   */\n      sub\n        /* \"#utility.yul\":2616:2618   */\n      0x20\n        /* \"#utility.yul\":2605:2614   */\n      dup4\n        /* \"#utility.yul\":2601:2619   */\n      add\n        /* \"#utility.yul\":2594:2642   */\n      mstore\n        /* \"#utility.yul\":2659:2737   */\n      tag_205\n        /* \"#utility.yul\":2732:2736   */\n      dup2\n        /* \"#utility.yul\":2723:2729   */\n      dup6\n        /* \"#utility.yul\":2659:2737   */\n      tag_127\n      jump\t// in\n    tag_205:\n        /* \"#utility.yul\":2651:2737   */\n      swap1\n      pop\n        /* \"#utility.yul\":2747:2819   */\n      tag_206\n        /* \"#utility.yul\":2815:2817   */\n      0x40\n        /* \"#utility.yul\":2804:2813   */\n      dup4\n        /* \"#utility.yul\":2800:2818   */\n      add\n        /* \"#utility.yul\":2791:2797   */\n      dup5\n        /* \"#utility.yul\":2747:2819   */\n      tag_122\n      jump\t// in\n    tag_206:\n        /* \"#utility.yul\":2293:2826   */\n      swap5\n      swap4\n      pop\n      pop\n      pop\n      pop\n      jump\t// out\n        /* \"#utility.yul\":2832:2949   */\n    tag_128:\n        /* \"#utility.yul\":2941:2942   */\n      0x00\n        /* \"#utility.yul\":2938:2939   */\n      dup1\n        /* \"#utility.yul\":2931:2943   */\n      revert\n        /* \"#utility.yul\":2955:3072   */\n    tag_129:\n        /* \"#utility.yul\":3064:3065   */\n      0x00\n        /* \"#utility.yul\":3061:3062   */\n      dup1\n        /* \"#utility.yul\":3054:3066   */\n      revert\n        /* \"#utility.yul\":3078:3258   */\n    tag_97:\n        /* \"#utility.yul\":3126:3203   */\n      0x4e487b7100000000000000000000000000000000000000000000000000000000\n        /* \"#utility.yul\":3123:3124   */\n      0x00\n        /* \"#utility.yul\":3116:3204   */\n      mstore\n        /* \"#utility.yul\":3223:3227   */\n      0x41\n        /* \"#utility.yul\":3220:3221   */\n      0x04\n        /* \"#utility.yul\":3213:3228   */\n      mstore\n        /* \"#utility.yul\":3247:3251   */\n      0x24\n        /* \"#utility.yul\":3244:3245   */\n      0x00\n        /* \"#utility.yul\":3237:3252   */\n      revert\n        /* \"#utility.yul\":3264:3545   */\n    tag_130:\n        /* \"#utility.yul\":3347:3374   */\n      tag_211\n        /* \"#utility.yul\":3369:3373   */\n      dup3\n        /* \"#utility.yul\":3347:3374   */\n      tag_126\n      jump\t// in\n    tag_211:\n        /* \"#utility.yul\":3339:3345   */\n      dup2\n        /* \"#utility.yul\":3335:3375   */\n      add\n        /* \"#utility.yul\":3477:3483   */\n      dup2\n        /* \"#utility.yul\":3465:3475   */\n      dup2\n        /* \"#utility.yul\":3462:3484   */\n      lt\n        /* \"#utility.yul\":3441:3459   */\n      0xffffffffffffffff\n        /* \"#utility.yul\":3429:3439   */\n      dup3\n        /* \"#utility.yul\":3426:3460   */\n      gt\n        /* \"#utility.yul\":3423:3485   */\n      or\n        /* \"#utility.yul\":3420:3508   */\n      iszero\n      tag_212\n      jumpi\n        /* \"#utility.yul\":3488:3506   */\n      tag_213\n      tag_97\n      jump\t// in\n    tag_213:\n        /* \"#utility.yul\":3420:3508   */\n    tag_212:\n        /* \"#utility.yul\":3528:3538   */\n      dup1\n        /* \"#utility.yul\":3524:3526   */\n      0x40\n        /* \"#utility.yul\":3517:3539   */\n      mstore\n        /* \"#utility.yul\":3307:3545   */\n      pop\n        /* \"#utility.yul\":3264:3545   */\n      pop\n      pop\n      jump\t// out\n        /* \"#utility.yul\":3551:3680   */\n    tag_131:\n        /* \"#utility.yul\":3585:3591   */\n      0x00\n        /* \"#utility.yul\":3612:3632   */\n      tag_215\n      tag_116\n      jump\t// in\n    tag_215:\n        /* \"#utility.yul\":3602:3632   */\n      swap1\n      pop\n        /* \"#utility.yul\":3641:3674   */\n      tag_216\n        /* \"#utility.yul\":3669:3673   */\n      dup3\n        /* \"#utility.yul\":3661:3667   */\n      dup3\n        /* \"#utility.yul\":3641:3674   */\n      tag_130\n      jump\t// in\n    tag_216:\n        /* \"#utility.yul\":3551:3680   */\n      swap2\n      swap1\n      pop\n      jump\t// out\n        /* \"#utility.yul\":3686:3994   */\n    tag_132:\n        /* \"#utility.yul\":3748:3752   */\n      0x00\n        /* \"#utility.yul\":3838:3856   */\n      0xffffffffffffffff\n        /* \"#utility.yul\":3830:3836   */\n      dup3\n        /* \"#utility.yul\":3827:3857   */\n      gt\n        /* \"#utility.yul\":3824:3880   */\n      iszero\n      tag_218\n      jumpi\n        /* \"#utility.yul\":3860:3878   */\n      tag_219\n      tag_97\n      jump\t// in\n    tag_219:\n        /* \"#utility.yul\":3824:3880   */\n    tag_218:\n        /* \"#utility.yul\":3898:3927   */\n      tag_220\n        /* \"#utility.yul\":3920:3926   */\n      dup3\n        /* \"#utility.yul\":3898:3927   */\n      tag_126\n      jump\t// in\n    tag_220:\n        /* \"#utility.yul\":3890:3927   */\n      swap1\n      pop\n        /* \"#utility.yul\":3982:3986   */\n      0x20\n        /* \"#utility.yul\":3976:3980   */\n      dup2\n        /* \"#utility.yul\":3972:3987   */\n      add\n        /* \"#utility.yul\":3964:3987   */\n      swap1\n      pop\n        /* \"#utility.yul\":3686:3994   */\n      swap2\n      swap1\n      pop\n      jump\t// out\n        /* \"#utility.yul\":4000:4148   */\n    tag_133:\n        /* \"#utility.yul\":4098:4104   */\n      dup3\n        /* \"#utility.yul\":4093:4096   */\n      dup2\n        /* \"#utility.yul\":4088:4091   */\n      dup4\n        /* \"#utility.yul\":4075:4105   */\n      calldatacopy\n        /* \"#utility.yul\":4139:4140   */\n      0x00\n        /* \"#utility.yul\":4130:4136   */\n      dup4\n        /* \"#utility.yul\":4125:4128   */\n      dup4\n        /* \"#utility.yul\":4121:4137   */\n      add\n        /* \"#utility.yul\":4114:4141   */\n      mstore\n        /* \"#utility.yul\":4000:4148   */\n      pop\n      pop\n      pop\n      jump\t// out\n        /* \"#utility.yul\":4154:4579   */\n    tag_134:\n        /* \"#utility.yul\":4232:4237   */\n      0x00\n        /* \"#utility.yul\":4257:4323   */\n      tag_223\n        /* \"#utility.yul\":4273:4322   */\n      tag_224\n        /* \"#utility.yul\":4315:4321   */\n      dup5\n        /* \"#utility.yul\":4273:4322   */\n      tag_132\n      jump\t// in\n    tag_224:\n        /* \"#utility.yul\":4257:4323   */\n      tag_131\n      jump\t// in\n    tag_223:\n        /* \"#utility.yul\":4248:4323   */\n      swap1\n      pop\n        /* \"#utility.yul\":4346:4352   */\n      dup3\n        /* \"#utility.yul\":4339:4344   */\n      dup2\n        /* \"#utility.yul\":4332:4353   */\n      mstore\n        /* \"#utility.yul\":4384:4388   */\n      0x20\n        /* \"#utility.yul\":4377:4382   */\n      dup2\n        /* \"#utility.yul\":4373:4389   */\n      add\n        /* \"#utility.yul\":4422:4425   */\n      dup5\n        /* \"#utility.yul\":4413:4419   */\n      dup5\n        /* \"#utility.yul\":4408:4411   */\n      dup5\n        /* \"#utility.yul\":4404:4420   */\n      add\n        /* \"#utility.yul\":4401:4426   */\n      gt\n        /* \"#utility.yul\":4398:4510   */\n      iszero\n      tag_225\n      jumpi\n        /* \"#utility.yul\":4429:4508   */\n      tag_226\n      tag_129\n      jump\t// in\n    tag_226:\n        /* \"#utility.yul\":4398:4510   */\n    tag_225:\n        /* \"#utility.yul\":4519:4573   */\n      tag_227\n        /* \"#utility.yul\":4566:4572   */\n      dup5\n        /* \"#utility.yul\":4561:4564   */\n      dup3\n        /* \"#utility.yul\":4556:4559   */\n      dup6\n        /* \"#utility.yul\":4519:4573   */\n      tag_133\n      jump\t// in\n    tag_227:\n        /* \"#utility.yul\":4238:4579   */\n      pop\n        /* \"#utility.yul\":4154:4579   */\n      swap4\n      swap3\n      pop\n      pop\n      pop\n      jump\t// out\n        /* \"#utility.yul\":4599:4939   */\n    tag_135:\n        /* \"#utility.yul\":4655:4660   */\n      0x00\n        /* \"#utility.yul\":4704:4707   */\n      dup3\n        /* \"#utility.yul\":4697:4701   */\n      0x1f\n        /* \"#utility.yul\":4689:4695   */\n      dup4\n        /* \"#utility.yul\":4685:4702   */\n      add\n        /* \"#utility.yul\":4681:4708   */\n      slt\n        /* \"#utility.yul\":4671:4793   */\n      tag_229\n      jumpi\n        /* \"#utility.yul\":4712:4791   */\n      tag_230\n      tag_128\n      jump\t// in\n    tag_230:\n        /* \"#utility.yul\":4671:4793   */\n    tag_229:\n        /* \"#utility.yul\":4829:4835   */\n      dup2\n        /* \"#utility.yul\":4816:4836   */\n      calldataload\n        /* \"#utility.yul\":4854:4933   */\n      tag_231\n        /* \"#utility.yul\":4929:4932   */\n      dup5\n        /* \"#utility.yul\":4921:4927   */\n      dup3\n        /* \"#utility.yul\":4914:4918   */\n      0x20\n        /* \"#utility.yul\":4906:4912   */\n      dup7\n        /* \"#utility.yul\":4902:4919   */\n      add\n        /* \"#utility.yul\":4854:4933   */\n      tag_134\n      jump\t// in\n    tag_231:\n        /* \"#utility.yul\":4845:4933   */\n      swap2\n      pop\n        /* \"#utility.yul\":4661:4939   */\n      pop\n        /* \"#utility.yul\":4599:4939   */\n      swap3\n      swap2\n      pop\n      pop\n      jump\t// out\n        /* \"#utility.yul\":4945:5454   */\n    tag_36:\n        /* \"#utility.yul\":5014:5020   */\n      0x00\n        /* \"#utility.yul\":5063:5065   */\n      0x20\n        /* \"#utility.yul\":5051:5060   */\n      dup3\n        /* \"#utility.yul\":5042:5049   */\n      dup5\n        /* \"#utility.yul\":5038:5061   */\n      sub\n        /* \"#utility.yul\":5034:5066   */\n      slt\n        /* \"#utility.yul\":5031:5150   */\n      iszero\n      tag_233\n      jumpi\n        /* \"#utility.yul\":5069:5148   */\n      tag_234\n      tag_117\n      jump\t// in\n    tag_234:\n        /* \"#utility.yul\":5031:5150   */\n    tag_233:\n        /* \"#utility.yul\":5217:5218   */\n      0x00\n        /* \"#utility.yul\":5206:5215   */\n      dup3\n        /* \"#utility.yul\":5202:5219   */\n      add\n        /* \"#utility.yul\":5189:5220   */\n      calldataload\n        /* \"#utility.yul\":5247:5265   */\n      0xffffffffffffffff\n        /* \"#utility.yul\":5239:5245   */\n      dup2\n        /* \"#utility.yul\":5236:5266   */\n      gt\n        /* \"#utility.yul\":5233:5350   */\n      iszero\n      tag_235\n      jumpi\n        /* \"#utility.yul\":5269:5348   */\n      tag_236\n      tag_118\n      jump\t// in\n    tag_236:\n        /* \"#utility.yul\":5233:5350   */\n    tag_235:\n        /* \"#utility.yul\":5374:5437   */\n      tag_237\n        /* \"#utility.yul\":5429:5436   */\n      dup5\n        /* \"#utility.yul\":5420:5426   */\n      dup3\n        /* \"#utility.yul\":5409:5418   */\n      dup6\n        /* \"#utility.yul\":5405:5427   */\n      add\n        /* \"#utility.yul\":5374:5437   */\n      tag_135\n      jump\t// in\n    tag_237:\n        /* \"#utility.yul\":5364:5437   */\n      swap2\n      pop\n        /* \"#utility.yul\":5160:5447   */\n      pop\n        /* \"#utility.yul\":4945:5454   */\n      swap3\n      swap2\n      pop\n      pop\n      jump\t// out\n        /* \"#utility.yul\":5460:5883   */\n    tag_41:\n        /* \"#utility.yul\":5601:5605   */\n      0x00\n        /* \"#utility.yul\":5639:5641   */\n      0x40\n        /* \"#utility.yul\":5628:5637   */\n      dup3\n        /* \"#utility.yul\":5624:5642   */\n      add\n        /* \"#utility.yul\":5616:5642   */\n      swap1\n      pop\n        /* \"#utility.yul\":5688:5697   */\n      dup2\n        /* \"#utility.yul\":5682:5686   */\n      dup2\n        /* \"#utility.yul\":5678:5698   */\n      sub\n        /* \"#utility.yul\":5674:5675   */\n      0x00\n        /* \"#utility.yul\":5663:5672   */\n      dup4\n        /* \"#utility.yul\":5659:5676   */\n      add\n        /* \"#utility.yul\":5652:5699   */\n      mstore\n        /* \"#utility.yul\":5716:5794   */\n      tag_239\n        /* \"#utility.yul\":5789:5793   */\n      dup2\n        /* \"#utility.yul\":5780:5786   */\n      dup6\n        /* \"#utility.yul\":5716:5794   */\n      tag_127\n      jump\t// in\n    tag_239:\n        /* \"#utility.yul\":5708:5794   */\n      swap1\n      pop\n        /* \"#utility.yul\":5804:5876   */\n      tag_240\n        /* \"#utility.yul\":5872:5874   */\n      0x20\n        /* \"#utility.yul\":5861:5870   */\n      dup4\n        /* \"#utility.yul\":5857:5875   */\n      add\n        /* \"#utility.yul\":5848:5854   */\n      dup5\n        /* \"#utility.yul\":5804:5876   */\n      tag_122\n      jump\t// in\n    tag_240:\n        /* \"#utility.yul\":5460:5883   */\n      swap4\n      swap3\n      pop\n      pop\n      pop\n      jump\t// out\n        /* \"#utility.yul\":5889:6015   */\n    tag_136:\n        /* \"#utility.yul\":5926:5933   */\n      0x00\n        /* \"#utility.yul\":5966:6008   */\n      0xffffffffffffffffffffffffffffffffffffffff\n        /* \"#utility.yul\":5959:5964   */\n      dup3\n        /* \"#utility.yul\":5955:6009   */\n      and\n        /* \"#utility.yul\":5944:6009   */\n      swap1\n      pop\n        /* \"#utility.yul\":5889:6015   */\n      swap2\n      swap1\n      pop\n      jump\t// out\n        /* \"#utility.yul\":6021:6117   */\n    tag_137:\n        /* \"#utility.yul\":6058:6065   */\n      0x00\n        /* \"#utility.yul\":6087:6111   */\n      tag_243\n        /* \"#utility.yul\":6105:6110   */\n      dup3\n        /* \"#utility.yul\":6087:6111   */\n      tag_136\n      jump\t// in\n    tag_243:\n        /* \"#utility.yul\":6076:6111   */\n      swap1\n      pop\n        /* \"#utility.yul\":6021:6117   */\n      swap2\n      swap1\n      pop\n      jump\t// out\n        /* \"#utility.yul\":6123:6245   */\n    tag_138:\n        /* \"#utility.yul\":6196:6220   */\n      tag_245\n        /* \"#utility.yul\":6214:6219   */\n      dup2\n        /* \"#utility.yul\":6196:6220   */\n      tag_137\n      jump\t// in\n    tag_245:\n        /* \"#utility.yul\":6189:6194   */\n      dup2\n        /* \"#utility.yul\":6186:6221   */\n      eq\n        /* \"#utility.yul\":6176:6239   */\n      tag_246\n      jumpi\n        /* \"#utility.yul\":6235:6236   */\n      0x00\n        /* \"#utility.yul\":6232:6233   */\n      dup1\n        /* \"#utility.yul\":6225:6237   */\n      revert\n        /* \"#utility.yul\":6176:6239   */\n    tag_246:\n        /* \"#utility.yul\":6123:6245   */\n      pop\n      jump\t// out\n        /* \"#utility.yul\":6251:6390   */\n    tag_139:\n        /* \"#utility.yul\":6297:6302   */\n      0x00\n        /* \"#utility.yul\":6335:6341   */\n      dup2\n        /* \"#utility.yul\":6322:6342   */\n      calldataload\n        /* \"#utility.yul\":6313:6342   */\n      swap1\n      pop\n        /* \"#utility.yul\":6351:6384   */\n      tag_248\n        /* \"#utility.yul\":6378:6383   */\n      dup2\n        /* \"#utility.yul\":6351:6384   */\n      tag_138\n      jump\t// in\n    tag_248:\n        /* \"#utility.yul\":6251:6390   */\n      swap3\n      swap2\n      pop\n      pop\n      jump\t// out\n        /* \"#utility.yul\":6396:6725   */\n    tag_44:\n        /* \"#utility.yul\":6455:6461   */\n      0x00\n        /* \"#utility.yul\":6504:6506   */\n      0x20\n        /* \"#utility.yul\":6492:6501   */\n      dup3\n        /* \"#utility.yul\":6483:6490   */\n      dup5\n        /* \"#utility.yul\":6479:6502   */\n      sub\n        /* \"#utility.yul\":6475:6507   */\n      slt\n        /* \"#utility.yul\":6472:6591   */\n      iszero\n      tag_250\n      jumpi\n        /* \"#utility.yul\":6510:6589   */\n      tag_251\n      tag_117\n      jump\t// in\n    tag_251:\n        /* \"#utility.yul\":6472:6591   */\n    tag_250:\n        /* \"#utility.yul\":6630:6631   */\n      0x00\n        /* \"#utility.yul\":6655:6708   */\n      tag_252\n        /* \"#utility.yul\":6700:6707   */\n      dup5\n        /* \"#utility.yul\":6691:6697   */\n      dup3\n        /* \"#utility.yul\":6680:6689   */\n      dup6\n        /* \"#utility.yul\":6676:6698   */\n      add\n        /* \"#utility.yul\":6655:6708   */\n      tag_139\n      jump\t// in\n    tag_252:\n        /* \"#utility.yul\":6645:6708   */\n      swap2\n      pop\n        /* \"#utility.yul\":6601:6718   */\n      pop\n        /* \"#utility.yul\":6396:6725   */\n      swap3\n      swap2\n      pop\n      pop\n      jump\t// out\n        /* \"#utility.yul\":6731:6821   */\n    tag_140:\n        /* \"#utility.yul\":6765:6772   */\n      0x00\n        /* \"#utility.yul\":6808:6813   */\n      dup2\n        /* \"#utility.yul\":6801:6814   */\n      iszero\n        /* \"#utility.yul\":6794:6815   */\n      iszero\n        /* \"#utility.yul\":6783:6815   */\n      swap1\n      pop\n        /* \"#utility.yul\":6731:6821   */\n      swap2\n      swap1\n      pop\n      jump\t// out\n        /* \"#utility.yul\":6827:6936   */\n    tag_141:\n        /* \"#utility.yul\":6908:6929   */\n      tag_255\n        /* \"#utility.yul\":6923:6928   */\n      dup2\n        /* \"#utility.yul\":6908:6929   */\n      tag_140\n      jump\t// in\n    tag_255:\n        /* \"#utility.yul\":6903:6906   */\n      dup3\n        /* \"#utility.yul\":6896:6930   */\n      mstore\n        /* \"#utility.yul\":6827:6936   */\n      pop\n      pop\n      jump\t// out\n        /* \"#utility.yul\":6942:7152   */\n    tag_47:\n        /* \"#utility.yul\":7029:7033   */\n      0x00\n        /* \"#utility.yul\":7067:7069   */\n      0x20\n        /* \"#utility.yul\":7056:7065   */\n      dup3\n        /* \"#utility.yul\":7052:7070   */\n      add\n        /* \"#utility.yul\":7044:7070   */\n      swap1\n      pop\n        /* \"#utility.yul\":7080:7145   */\n      tag_257\n        /* \"#utility.yul\":7142:7143   */\n      0x00\n        /* \"#utility.yul\":7131:7140   */\n      dup4\n        /* \"#utility.yul\":7127:7144   */\n      add\n        /* \"#utility.yul\":7118:7124   */\n      dup5\n        /* \"#utility.yul\":7080:7145   */\n      tag_141\n      jump\t// in\n    tag_257:\n        /* \"#utility.yul\":6942:7152   */\n      swap3\n      swap2\n      pop\n      pop\n      jump\t// out\n        /* \"#utility.yul\":7158:7296   */\n    tag_142:\n        /* \"#utility.yul\":7249:7255   */\n      0x00\n        /* \"#utility.yul\":7283:7288   */\n      dup2\n        /* \"#utility.yul\":7277:7289   */\n      mload\n        /* \"#utility.yul\":7267:7289   */\n      swap1\n      pop\n        /* \"#utility.yul\":7158:7296   */\n      swap2\n      swap1\n      pop\n      jump\t// out\n        /* \"#utility.yul\":7302:7510   */\n    tag_143:\n        /* \"#utility.yul\":7425:7436   */\n      0x00\n        /* \"#utility.yul\":7459:7465   */\n      dup3\n        /* \"#utility.yul\":7454:7457   */\n      dup3\n        /* \"#utility.yul\":7447:7466   */\n      mstore\n        /* \"#utility.yul\":7499:7503   */\n      0x20\n        /* \"#utility.yul\":7494:7497   */\n      dup3\n        /* \"#utility.yul\":7490:7504   */\n      add\n        /* \"#utility.yul\":7475:7504   */\n      swap1\n      pop\n        /* \"#utility.yul\":7302:7510   */\n      swap3\n      swap2\n      pop\n      pop\n      jump\t// out\n        /* \"#utility.yul\":7516:7672   */\n    tag_144:\n        /* \"#utility.yul\":7607:7611   */\n      0x00\n        /* \"#utility.yul\":7630:7633   */\n      dup2\n        /* \"#utility.yul\":7622:7633   */\n      swap1\n      pop\n        /* \"#utility.yul\":7660:7664   */\n      0x20\n        /* \"#utility.yul\":7655:7658   */\n      dup3\n        /* \"#utility.yul\":7651:7665   */\n      add\n        /* \"#utility.yul\":7643:7665   */\n      swap1\n      pop\n        /* \"#utility.yul\":7516:7672   */\n      swap2\n      swap1\n      pop\n      jump\t// out\n        /* \"#utility.yul\":7678:7786   */\n    tag_145:\n        /* \"#utility.yul\":7755:7779   */\n      tag_262\n        /* \"#utility.yul\":7773:7778   */\n      dup2\n        /* \"#utility.yul\":7755:7779   */\n      tag_119\n      jump\t// in\n    tag_262:\n        /* \"#utility.yul\":7750:7753   */\n      dup3\n        /* \"#utility.yul\":7743:7780   */\n      mstore\n        /* \"#utility.yul\":7678:7786   */\n      pop\n      pop\n      jump\t// out\n        /* \"#utility.yul\":7792:7951   */\n    tag_146:\n        /* \"#utility.yul\":7866:7877   */\n      0x00\n        /* \"#utility.yul\":7900:7906   */\n      dup3\n        /* \"#utility.yul\":7895:7898   */\n      dup3\n        /* \"#utility.yul\":7888:7907   */\n      mstore\n        /* \"#utility.yul\":7940:7944   */\n      0x20\n        /* \"#utility.yul\":7935:7938   */\n      dup3\n        /* \"#utility.yul\":7931:7945   */\n      add\n        /* \"#utility.yul\":7916:7945   */\n      swap1\n      pop\n        /* \"#utility.yul\":7792:7951   */\n      swap3\n      swap2\n      pop\n      pop\n      jump\t// out\n        /* \"#utility.yul\":7957:8314   */\n    tag_147:\n        /* \"#utility.yul\":8035:8038   */\n      0x00\n        /* \"#utility.yul\":8063:8102   */\n      tag_265\n        /* \"#utility.yul\":8096:8101   */\n      dup3\n        /* \"#utility.yul\":8063:8102   */\n      tag_123\n      jump\t// in\n    tag_265:\n        /* \"#utility.yul\":8118:8179   */\n      tag_266\n        /* \"#utility.yul\":8172:8178   */\n      dup2\n        /* \"#utility.yul\":8167:8170   */\n      dup6\n        /* \"#utility.yul\":8118:8179   */\n      tag_146\n      jump\t// in\n    tag_266:\n        /* \"#utility.yul\":8111:8179   */\n      swap4\n      pop\n        /* \"#utility.yul\":8188:8253   */\n      tag_267\n        /* \"#utility.yul\":8246:8252   */\n      dup2\n        /* \"#utility.yul\":8241:8244   */\n      dup6\n        /* \"#utility.yul\":8234:8238   */\n      0x20\n        /* \"#utility.yul\":8227:8232   */\n      dup7\n        /* \"#utility.yul\":8223:8239   */\n      add\n        /* \"#utility.yul\":8188:8253   */\n      tag_125\n      jump\t// in\n    tag_267:\n        /* \"#utility.yul\":8278:8307   */\n      tag_268\n        /* \"#utility.yul\":8300:8306   */\n      dup2\n        /* \"#utility.yul\":8278:8307   */\n      tag_126\n      jump\t// in\n    tag_268:\n        /* \"#utility.yul\":8273:8276   */\n      dup5\n        /* \"#utility.yul\":8269:8308   */\n      add\n        /* \"#utility.yul\":8262:8308   */\n      swap2\n      pop\n        /* \"#utility.yul\":8039:8314   */\n      pop\n        /* \"#utility.yul\":7957:8314   */\n      swap3\n      swap2\n      pop\n      pop\n      jump\t// out\n        /* \"#utility.yul\":8378:9149   */\n    tag_148:\n        /* \"#utility.yul\":8485:8488   */\n      0x00\n        /* \"#utility.yul\":8521:8525   */\n      0x60\n        /* \"#utility.yul\":8516:8519   */\n      dup4\n        /* \"#utility.yul\":8512:8526   */\n      add\n        /* \"#utility.yul\":8606:8610   */\n      0x00\n        /* \"#utility.yul\":8599:8604   */\n      dup4\n        /* \"#utility.yul\":8595:8611   */\n      add\n        /* \"#utility.yul\":8589:8612   */\n      mload\n        /* \"#utility.yul\":8625:8688   */\n      tag_270\n        /* \"#utility.yul\":8682:8686   */\n      0x00\n        /* \"#utility.yul\":8677:8680   */\n      dup7\n        /* \"#utility.yul\":8673:8687   */\n      add\n        /* \"#utility.yul\":8659:8671   */\n      dup3\n        /* \"#utility.yul\":8625:8688   */\n      tag_145\n      jump\t// in\n    tag_270:\n        /* \"#utility.yul\":8536:8698   */\n      pop\n        /* \"#utility.yul\":8780:8784   */\n      0x20\n        /* \"#utility.yul\":8773:8778   */\n      dup4\n        /* \"#utility.yul\":8769:8785   */\n      add\n        /* \"#utility.yul\":8763:8786   */\n      mload\n        /* \"#utility.yul\":8833:8836   */\n      dup5\n        /* \"#utility.yul\":8827:8831   */\n      dup3\n        /* \"#utility.yul\":8823:8837   */\n      sub\n        /* \"#utility.yul\":8816:8820   */\n      0x20\n        /* \"#utility.yul\":8811:8814   */\n      dup7\n        /* \"#utility.yul\":8807:8821   */\n      add\n        /* \"#utility.yul\":8800:8838   */\n      mstore\n        /* \"#utility.yul\":8859:8932   */\n      tag_271\n        /* \"#utility.yul\":8927:8931   */\n      dup3\n        /* \"#utility.yul\":8913:8925   */\n      dup3\n        /* \"#utility.yul\":8859:8932   */\n      tag_147\n      jump\t// in\n    tag_271:\n        /* \"#utility.yul\":8851:8932   */\n      swap2\n      pop\n        /* \"#utility.yul\":8708:8943   */\n      pop\n        /* \"#utility.yul\":9030:9034   */\n      0x40\n        /* \"#utility.yul\":9023:9028   */\n      dup4\n        /* \"#utility.yul\":9019:9035   */\n      add\n        /* \"#utility.yul\":9013:9036   */\n      mload\n        /* \"#utility.yul\":9049:9112   */\n      tag_272\n        /* \"#utility.yul\":9106:9110   */\n      0x40\n        /* \"#utility.yul\":9101:9104   */\n      dup7\n        /* \"#utility.yul\":9097:9111   */\n      add\n        /* \"#utility.yul\":9083:9095   */\n      dup3\n        /* \"#utility.yul\":9049:9112   */\n      tag_145\n      jump\t// in\n    tag_272:\n        /* \"#utility.yul\":8953:9122   */\n      pop\n        /* \"#utility.yul\":9139:9143   */\n      dup1\n        /* \"#utility.yul\":9132:9143   */\n      swap2\n      pop\n        /* \"#utility.yul\":8490:9149   */\n      pop\n        /* \"#utility.yul\":8378:9149   */\n      swap3\n      swap2\n      pop\n      pop\n      jump\t// out\n        /* \"#utility.yul\":9155:9407   */\n    tag_149:\n        /* \"#utility.yul\":9272:9282   */\n      0x00\n        /* \"#utility.yul\":9307:9401   */\n      tag_274\n        /* \"#utility.yul\":9397:9400   */\n      dup4\n        /* \"#utility.yul\":9389:9395   */\n      dup4\n        /* \"#utility.yul\":9307:9401   */\n      tag_148\n      jump\t// in\n    tag_274:\n        /* \"#utility.yul\":9293:9401   */\n      swap1\n      pop\n        /* \"#utility.yul\":9155:9407   */\n      swap3\n      swap2\n      pop\n      pop\n      jump\t// out\n        /* \"#utility.yul\":9413:9550   */\n    tag_150:\n        /* \"#utility.yul\":9507:9511   */\n      0x00\n        /* \"#utility.yul\":9539:9543   */\n      0x20\n        /* \"#utility.yul\":9534:9537   */\n      dup3\n        /* \"#utility.yul\":9530:9544   */\n      add\n        /* \"#utility.yul\":9522:9544   */\n      swap1\n      pop\n        /* \"#utility.yul\":9413:9550   */\n      swap2\n      swap1\n      pop\n      jump\t// out\n        /* \"#utility.yul\":9618:10721   */\n    tag_151:\n        /* \"#utility.yul\":9785:9788   */\n      0x00\n        /* \"#utility.yul\":9814:9892   */\n      tag_277\n        /* \"#utility.yul\":9886:9891   */\n      dup3\n        /* \"#utility.yul\":9814:9892   */\n      tag_142\n      jump\t// in\n    tag_277:\n        /* \"#utility.yul\":9908:10018   */\n      tag_278\n        /* \"#utility.yul\":10011:10017   */\n      dup2\n        /* \"#utility.yul\":10006:10009   */\n      dup6\n        /* \"#utility.yul\":9908:10018   */\n      tag_143\n      jump\t// in\n    tag_278:\n        /* \"#utility.yul\":9901:10018   */\n      swap4\n      pop\n        /* \"#utility.yul\":10044:10047   */\n      dup4\n        /* \"#utility.yul\":10089:10093   */\n      0x20\n        /* \"#utility.yul\":10081:10087   */\n      dup3\n        /* \"#utility.yul\":10077:10094   */\n      mul\n        /* \"#utility.yul\":10072:10075   */\n      dup6\n        /* \"#utility.yul\":10068:10095   */\n      add\n        /* \"#utility.yul\":10119:10199   */\n      tag_279\n        /* \"#utility.yul\":10193:10198   */\n      dup6\n        /* \"#utility.yul\":10119:10199   */\n      tag_144\n      jump\t// in\n    tag_279:\n        /* \"#utility.yul\":10222:10229   */\n      dup1\n        /* \"#utility.yul\":10253:10254   */\n      0x00\n        /* \"#utility.yul\":10238:10676   */\n    tag_280:\n        /* \"#utility.yul\":10263:10269   */\n      dup6\n        /* \"#utility.yul\":10260:10261   */\n      dup2\n        /* \"#utility.yul\":10257:10270   */\n      lt\n        /* \"#utility.yul\":10238:10676   */\n      iszero\n      tag_282\n      jumpi\n        /* \"#utility.yul\":10334:10343   */\n      dup5\n        /* \"#utility.yul\":10328:10332   */\n      dup5\n        /* \"#utility.yul\":10324:10344   */\n      sub\n        /* \"#utility.yul\":10319:10322   */\n      dup10\n        /* \"#utility.yul\":10312:10345   */\n      mstore\n        /* \"#utility.yul\":10385:10391   */\n      dup2\n        /* \"#utility.yul\":10379:10392   */\n      mload\n        /* \"#utility.yul\":10413:10525   */\n      tag_283\n        /* \"#utility.yul\":10520:10524   */\n      dup6\n        /* \"#utility.yul\":10505:10518   */\n      dup3\n        /* \"#utility.yul\":10413:10525   */\n      tag_149\n      jump\t// in\n    tag_283:\n        /* \"#utility.yul\":10405:10525   */\n      swap5\n      pop\n        /* \"#utility.yul\":10548:10632   */\n      tag_284\n        /* \"#utility.yul\":10625:10631   */\n      dup4\n        /* \"#utility.yul\":10548:10632   */\n      tag_150\n      jump\t// in\n    tag_284:\n        /* \"#utility.yul\":10538:10632   */\n      swap3\n      pop\n        /* \"#utility.yul\":10661:10665   */\n      0x20\n        /* \"#utility.yul\":10656:10659   */\n      dup11\n        /* \"#utility.yul\":10652:10666   */\n      add\n        /* \"#utility.yul\":10645:10666   */\n      swap10\n      pop\n        /* \"#utility.yul\":10298:10676   */\n      pop\n        /* \"#utility.yul\":10285:10286   */\n      0x01\n        /* \"#utility.yul\":10282:10283   */\n      dup2\n        /* \"#utility.yul\":10278:10287   */\n      add\n        /* \"#utility.yul\":10273:10287   */\n      swap1\n      pop\n        /* \"#utility.yul\":10238:10676   */\n      jump(tag_280)\n    tag_282:\n        /* \"#utility.yul\":10242:10256   */\n      pop\n        /* \"#utility.yul\":10692:10696   */\n      dup3\n        /* \"#utility.yul\":10685:10696   */\n      swap8\n      pop\n        /* \"#utility.yul\":10712:10715   */\n      dup8\n        /* \"#utility.yul\":10705:10715   */\n      swap6\n      pop\n        /* \"#utility.yul\":9790:10721   */\n      pop\n      pop\n      pop\n      pop\n      pop\n        /* \"#utility.yul\":9618:10721   */\n      swap3\n      swap2\n      pop\n      pop\n      jump\t// out\n        /* \"#utility.yul\":10727:11196   */\n    tag_51:\n        /* \"#utility.yul\":10918:10922   */\n      0x00\n        /* \"#utility.yul\":10956:10958   */\n      0x20\n        /* \"#utility.yul\":10945:10954   */\n      dup3\n        /* \"#utility.yul\":10941:10959   */\n      add\n        /* \"#utility.yul\":10933:10959   */\n      swap1\n      pop\n        /* \"#utility.yul\":11005:11014   */\n      dup2\n        /* \"#utility.yul\":10999:11003   */\n      dup2\n        /* \"#utility.yul\":10995:11015   */\n      sub\n        /* \"#utility.yul\":10991:10992   */\n      0x00\n        /* \"#utility.yul\":10980:10989   */\n      dup4\n        /* \"#utility.yul\":10976:10993   */\n      add\n        /* \"#utility.yul\":10969:11016   */\n      mstore\n        /* \"#utility.yul\":11033:11189   */\n      tag_286\n        /* \"#utility.yul\":11184:11188   */\n      dup2\n        /* \"#utility.yul\":11175:11181   */\n      dup5\n        /* \"#utility.yul\":11033:11189   */\n      tag_151\n      jump\t// in\n    tag_286:\n        /* \"#utility.yul\":11025:11189   */\n      swap1\n      pop\n        /* \"#utility.yul\":10727:11196   */\n      swap3\n      swap2\n      pop\n      pop\n      jump\t// out\n        /* \"#utility.yul\":11202:11320   */\n    tag_152:\n        /* \"#utility.yul\":11289:11313   */\n      tag_288\n        /* \"#utility.yul\":11307:11312   */\n      dup2\n        /* \"#utility.yul\":11289:11313   */\n      tag_137\n      jump\t// in\n    tag_288:\n        /* \"#utility.yul\":11284:11287   */\n      dup3\n        /* \"#utility.yul\":11277:11314   */\n      mstore\n        /* \"#utility.yul\":11202:11320   */\n      pop\n      pop\n      jump\t// out\n        /* \"#utility.yul\":11326:11548   */\n    tag_55:\n        /* \"#utility.yul\":11419:11423   */\n      0x00\n        /* \"#utility.yul\":11457:11459   */\n      0x20\n        /* \"#utility.yul\":11446:11455   */\n      dup3\n        /* \"#utility.yul\":11442:11460   */\n      add\n        /* \"#utility.yul\":11434:11460   */\n      swap1\n      pop\n        /* \"#utility.yul\":11470:11541   */\n      tag_290\n        /* \"#utility.yul\":11538:11539   */\n      0x00\n        /* \"#utility.yul\":11527:11536   */\n      dup4\n        /* \"#utility.yul\":11523:11540   */\n      add\n        /* \"#utility.yul\":11514:11520   */\n      dup5\n        /* \"#utility.yul\":11470:11541   */\n      tag_152\n      jump\t// in\n    tag_290:\n        /* \"#utility.yul\":11326:11548   */\n      swap3\n      swap2\n      pop\n      pop\n      jump\t// out\n        /* \"#utility.yul\":11554:11727   */\n    tag_153:\n        /* \"#utility.yul\":11694:11719   */\n      0x596f75206861766520616c726561647920766f7465642e000000000000000000\n        /* \"#utility.yul\":11690:11691   */\n      0x00\n        /* \"#utility.yul\":11682:11688   */\n      dup3\n        /* \"#utility.yul\":11678:11692   */\n      add\n        /* \"#utility.yul\":11671:11720   */\n      mstore\n        /* \"#utility.yul\":11554:11727   */\n      pop\n      jump\t// out\n        /* \"#utility.yul\":11733:12099   */\n    tag_154:\n        /* \"#utility.yul\":11875:11878   */\n      0x00\n        /* \"#utility.yul\":11896:11963   */\n      tag_293\n        /* \"#utility.yul\":11960:11962   */\n      0x17\n        /* \"#utility.yul\":11955:11958   */\n      dup4\n        /* \"#utility.yul\":11896:11963   */\n      tag_124\n      jump\t// in\n    tag_293:\n        /* \"#utility.yul\":11889:11963   */\n      swap2\n      pop\n        /* \"#utility.yul\":11972:12065   */\n      tag_294\n        /* \"#utility.yul\":12061:12064   */\n      dup3\n        /* \"#utility.yul\":11972:12065   */\n      tag_153\n      jump\t// in\n    tag_294:\n        /* \"#utility.yul\":12090:12092   */\n      0x20\n        /* \"#utility.yul\":12085:12088   */\n      dup3\n        /* \"#utility.yul\":12081:12093   */\n      add\n        /* \"#utility.yul\":12074:12093   */\n      swap1\n      pop\n        /* \"#utility.yul\":11733:12099   */\n      swap2\n      swap1\n      pop\n      jump\t// out\n        /* \"#utility.yul\":12105:12524   */\n    tag_59:\n        /* \"#utility.yul\":12271:12275   */\n      0x00\n        /* \"#utility.yul\":12309:12311   */\n      0x20\n        /* \"#utility.yul\":12298:12307   */\n      dup3\n        /* \"#utility.yul\":12294:12312   */\n      add\n        /* \"#utility.yul\":12286:12312   */\n      swap1\n      pop\n        /* \"#utility.yul\":12358:12367   */\n      dup2\n        /* \"#utility.yul\":12352:12356   */\n      dup2\n        /* \"#utility.yul\":12348:12368   */\n      sub\n        /* \"#utility.yul\":12344:12345   */\n      0x00\n        /* \"#utility.yul\":12333:12342   */\n      dup4\n        /* \"#utility.yul\":12329:12346   */\n      add\n        /* \"#utility.yul\":12322:12369   */\n      mstore\n        /* \"#utility.yul\":12386:12517   */\n      tag_296\n        /* \"#utility.yul\":12512:12516   */\n      dup2\n        /* \"#utility.yul\":12386:12517   */\n      tag_154\n      jump\t// in\n    tag_296:\n        /* \"#utility.yul\":12378:12517   */\n      swap1\n      pop\n        /* \"#utility.yul\":12105:12524   */\n      swap2\n      swap1\n      pop\n      jump\t// out\n        /* \"#utility.yul\":12530:12698   */\n    tag_155:\n        /* \"#utility.yul\":12670:12690   */\n      0x496e76616c69642063616e6469646174652e0000000000000000000000000000\n        /* \"#utility.yul\":12666:12667   */\n      0x00\n        /* \"#utility.yul\":12658:12664   */\n      dup3\n        /* \"#utility.yul\":12654:12668   */\n      add\n        /* \"#utility.yul\":12647:12691   */\n      mstore\n        /* \"#utility.yul\":12530:12698   */\n      pop\n      jump\t// out\n        /* \"#utility.yul\":12704:13070   */\n    tag_156:\n        /* \"#utility.yul\":12846:12849   */\n      0x00\n        /* \"#utility.yul\":12867:12934   */\n      tag_299\n        /* \"#utility.yul\":12931:12933   */\n      0x12\n        /* \"#utility.yul\":12926:12929   */\n      dup4\n        /* \"#utility.yul\":12867:12934   */\n      tag_124\n      jump\t// in\n    tag_299:\n        /* \"#utility.yul\":12860:12934   */\n      swap2\n      pop\n        /* \"#utility.yul\":12943:13036   */\n      tag_300\n        /* \"#utility.yul\":13032:13035   */\n      dup3\n        /* \"#utility.yul\":12943:13036   */\n      tag_155\n      jump\t// in\n    tag_300:\n        /* \"#utility.yul\":13061:13063   */\n      0x20\n        /* \"#utility.yul\":13056:13059   */\n      dup3\n        /* \"#utility.yul\":13052:13064   */\n      add\n        /* \"#utility.yul\":13045:13064   */\n      swap1\n      pop\n        /* \"#utility.yul\":12704:13070   */\n      swap2\n      swap1\n      pop\n      jump\t// out\n        /* \"#utility.yul\":13076:13495   */\n    tag_63:\n        /* \"#utility.yul\":13242:13246   */\n      0x00\n        /* \"#utility.yul\":13280:13282   */\n      0x20\n        /* \"#utility.yul\":13269:13278   */\n      dup3\n        /* \"#utility.yul\":13265:13283   */\n      add\n        /* \"#utility.yul\":13257:13283   */\n      swap1\n      pop\n        /* \"#utility.yul\":13329:13338   */\n      dup2\n        /* \"#utility.yul\":13323:13327   */\n      dup2\n        /* \"#utility.yul\":13319:13339   */\n      sub\n        /* \"#utility.yul\":13315:13316   */\n      0x00\n        /* \"#utility.yul\":13304:13313   */\n      dup4\n        /* \"#utility.yul\":13300:13317   */\n      add\n        /* \"#utility.yul\":13293:13340   */\n      mstore\n        /* \"#utility.yul\":13357:13488   */\n      tag_302\n        /* \"#utility.yul\":13483:13487   */\n      dup2\n        /* \"#utility.yul\":13357:13488   */\n      tag_156\n      jump\t// in\n    tag_302:\n        /* \"#utility.yul\":13349:13488   */\n      swap1\n      pop\n        /* \"#utility.yul\":13076:13495   */\n      swap2\n      swap1\n      pop\n      jump\t// out\n        /* \"#utility.yul\":13501:13681   */\n    tag_157:\n        /* \"#utility.yul\":13549:13626   */\n      0x4e487b7100000000000000000000000000000000000000000000000000000000\n        /* \"#utility.yul\":13546:13547   */\n      0x00\n        /* \"#utility.yul\":13539:13627   */\n      mstore\n        /* \"#utility.yul\":13646:13650   */\n      0x11\n        /* \"#utility.yul\":13643:13644   */\n      0x04\n        /* \"#utility.yul\":13636:13651   */\n      mstore\n        /* \"#utility.yul\":13670:13674   */\n      0x24\n        /* \"#utility.yul\":13667:13668   */\n      0x00\n        /* \"#utility.yul\":13660:13675   */\n      revert\n        /* \"#utility.yul\":13687:13920   */\n    tag_65:\n        /* \"#utility.yul\":13726:13729   */\n      0x00\n        /* \"#utility.yul\":13749:13773   */\n      tag_305\n        /* \"#utility.yul\":13767:13772   */\n      dup3\n        /* \"#utility.yul\":13749:13773   */\n      tag_119\n      jump\t// in\n    tag_305:\n        /* \"#utility.yul\":13740:13773   */\n      swap2\n      pop\n        /* \"#utility.yul\":13795:13861   */\n      0xffffffffffffffffffffffffffffffffffffffffffffffffffffffffffffffff\n        /* \"#utility.yul\":13788:13793   */\n      dup3\n        /* \"#utility.yul\":13785:13862   */\n      sub\n        /* \"#utility.yul\":13782:13885   */\n      tag_306\n      jumpi\n        /* \"#utility.yul\":13865:13883   */\n      tag_307\n      tag_157\n      jump\t// in\n    tag_307:\n        /* \"#utility.yul\":13782:13885   */\n    tag_306:\n        /* \"#utility.yul\":13912:13913   */\n      0x01\n        /* \"#utility.yul\":13905:13910   */\n      dup3\n        /* \"#utility.yul\":13901:13914   */\n      add\n        /* \"#utility.yul\":13894:13914   */\n      swap1\n      pop\n        /* \"#utility.yul\":13687:13920   */\n      swap2\n      swap1\n      pop\n      jump\t// out\n        /* \"#utility.yul\":13926:14106   */\n    tag_158:\n        /* \"#utility.yul\":13974:14051   */\n      0x4e487b7100000000000000000000000000000000000000000000000000000000\n        /* \"#utility.yul\":13971:13972   */\n      0x00\n        /* \"#utility.yul\":13964:14052   */\n      mstore\n        /* \"#utility.yul\":14071:14075   */\n      0x22\n        /* \"#utility.yul\":14068:14069   */\n      0x04\n        /* \"#utility.yul\":14061:14076   */\n      mstore\n        /* \"#utility.yul\":14095:14099   */\n      0x24\n        /* \"#utility.yul\":14092:14093   */\n      0x00\n        /* \"#utility.yul\":14085:14100   */\n      revert\n        /* \"#utility.yul\":14112:14432   */\n    tag_70:\n        /* \"#utility.yul\":14156:14162   */\n      0x00\n        /* \"#utility.yul\":14193:14194   */\n      0x02\n        /* \"#utility.yul\":14187:14191   */\n      dup3\n        /* \"#utility.yul\":14183:14195   */\n      div\n        /* \"#utility.yul\":14173:14195   */\n      swap1\n      pop\n        /* \"#utility.yul\":14240:14241   */\n      0x01\n        /* \"#utility.yul\":14234:14238   */\n      dup3\n        /* \"#utility.yul\":14230:14242   */\n      and\n        /* \"#utility.yul\":14261:14279   */\n      dup1\n        /* \"#utility.yul\":14251:14332   */\n      tag_310\n      jumpi\n        /* \"#utility.yul\":14317:14321   */\n      0x7f\n        /* \"#utility.yul\":14309:14315   */\n      dup3\n        /* \"#utility.yul\":14305:14322   */\n      and\n        /* \"#utility.yul\":14295:14322   */\n      swap2\n      pop\n        /* \"#utility.yul\":14251:14332   */\n    tag_310:\n        /* \"#utility.yul\":14379:14381   */\n      0x20\n        /* \"#utility.yul\":14371:14377   */\n      dup3\n        /* \"#utility.yul\":14368:14382   */\n      lt\n        /* \"#utility.yul\":14348:14366   */\n      dup2\n        /* \"#utility.yul\":14345:14383   */\n      sub\n        /* \"#utility.yul\":14342:14426   */\n      tag_311\n      jumpi\n        /* \"#utility.yul\":14398:14416   */\n      tag_312\n      tag_158\n      jump\t// in\n    tag_312:\n        /* \"#utility.yul\":14342:14426   */\n    tag_311:\n        /* \"#utility.yul\":14163:14432   */\n      pop\n        /* \"#utility.yul\":14112:14432   */\n      swap2\n      swap1\n      pop\n      jump\t// out\n        /* \"#utility.yul\":14438:14617   */\n    tag_159:\n        /* \"#utility.yul\":14578:14609   */\n      0x4f6e6c792061646d696e2063616e206164642063616e64696461746573000000\n        /* \"#utility.yul\":14574:14575   */\n      0x00\n        /* \"#utility.yul\":14566:14572   */\n      dup3\n        /* \"#utility.yul\":14562:14576   */\n      add\n        /* \"#utility.yul\":14555:14610   */\n      mstore\n        /* \"#utility.yul\":14438:14617   */\n      pop\n      jump\t// out\n        /* \"#utility.yul\":14623:14989   */\n    tag_160:\n        /* \"#utility.yul\":14765:14768   */\n      0x00\n        /* \"#utility.yul\":14786:14853   */\n      tag_315\n        /* \"#utility.yul\":14850:14852   */\n      0x1d\n        /* \"#utility.yul\":14845:14848   */\n      dup4\n        /* \"#utility.yul\":14786:14853   */\n      tag_124\n      jump\t// in\n    tag_315:\n        /* \"#utility.yul\":14779:14853   */\n      swap2\n      pop\n        /* \"#utility.yul\":14862:14955   */\n      tag_316\n        /* \"#utility.yul\":14951:14954   */\n      dup3\n        /* \"#utility.yul\":14862:14955   */\n      tag_159\n      jump\t// in\n    tag_316:\n        /* \"#utility.yul\":14980:14982   */\n      0x20\n        /* \"#utility.yul\":14975:14978   */\n      dup3\n        /* \"#utility.yul\":14971:14983   */\n      add\n        /* \"#utility.yul\":14964:14983   */\n      swap1\n      pop\n        /* \"#utility.yul\":14623:14989   */\n      swap2\n      swap1\n      pop\n      jump\t// out\n        /* \"#utility.yul\":14995:15414   */\n    tag_78:\n        /* \"#utility.yul\":15161:15165   */\n      0x00\n        /* \"#utility.yul\":15199:15201   */\n      0x20\n        /* \"#utility.yul\":15188:15197   */\n      dup3\n        /* \"#utility.yul\":15184:15202   */\n      add\n        /* \"#utility.yul\":15176:15202   */\n      swap1\n      pop\n        /* \"#utility.yul\":15248:15257   */\n      dup2\n        /* \"#utility.yul\":15242:15246   */\n      dup2\n        /* \"#utility.yul\":15238:15258   */\n      sub\n        /* \"#utility.yul\":15234:15235   */\n      0x00\n        /* \"#utility.yul\":15223:15232   */\n      dup4\n        /* \"#utility.yul\":15219:15236   */\n      add\n        /* \"#utility.yul\":15212:15259   */\n      mstore\n        /* \"#utility.yul\":15276:15407   */\n      tag_318\n        /* \"#utility.yul\":15402:15406   */\n      dup2\n        /* \"#utility.yul\":15276:15407   */\n      tag_160\n      jump\t// in\n    tag_318:\n        /* \"#utility.yul\":15268:15407   */\n      swap1\n      pop\n        /* \"#utility.yul\":14995:15414   */\n      swap2\n      swap1\n      pop\n      jump\t// out\n        /* \"#utility.yul\":15420:15561   */\n    tag_161:\n        /* \"#utility.yul\":15469:15473   */\n      0x00\n        /* \"#utility.yul\":15492:15495   */\n      dup2\n        /* \"#utility.yul\":15484:15495   */\n      swap1\n      pop\n        /* \"#utility.yul\":15515:15518   */\n      dup2\n        /* \"#utility.yul\":15512:15513   */\n      0x00\n        /* \"#utility.yul\":15505:15519   */\n      mstore\n        /* \"#utility.yul\":15549:15553   */\n      0x20\n        /* \"#utility.yul\":15546:15547   */\n      0x00\n        /* \"#utility.yul\":15536:15554   */\n      keccak256\n        /* \"#utility.yul\":15528:15554   */\n      swap1\n      pop\n        /* \"#utility.yul\":15420:15561   */\n      swap2\n      swap1\n      pop\n      jump\t// out\n        /* \"#utility.yul\":15567:15660   */\n    tag_162:\n        /* \"#utility.yul\":15604:15610   */\n      0x00\n        /* \"#utility.yul\":15651:15653   */\n      0x20\n        /* \"#utility.yul\":15646:15648   */\n      0x1f\n        /* \"#utility.yul\":15639:15644   */\n      dup4\n        /* \"#utility.yul\":15635:15649   */\n      add\n        /* \"#utility.yul\":15631:15654   */\n      div\n        /* \"#utility.yul\":15621:15654   */\n      swap1\n      pop\n        /* \"#utility.yul\":15567:15660   */\n      swap2\n      swap1\n      pop\n      jump\t// out\n        /* \"#utility.yul\":15666:15773   */\n    tag_163:\n        /* \"#utility.yul\":15710:15718   */\n      0x00\n        /* \"#utility.yul\":15760:15765   */\n      dup3\n        /* \"#utility.yul\":15754:15758   */\n      dup3\n        /* \"#utility.yul\":15750:15766   */\n      shl\n        /* \"#utility.yul\":15729:15766   */\n      swap1\n      pop\n        /* \"#utility.yul\":15666:15773   */\n      swap3\n      swap2\n      pop\n      pop\n      jump\t// out\n        /* \"#utility.yul\":15779:16172   */\n    tag_164:\n        /* \"#utility.yul\":15848:15854   */\n      0x00\n        /* \"#utility.yul\":15898:15899   */\n      0x08\n        /* \"#utility.yul\":15886:15896   */\n      dup4\n        /* \"#utility.yul\":15882:15900   */\n      mul\n        /* \"#utility.yul\":15921:16018   */\n      tag_323\n        /* \"#utility.yul\":15951:16017   */\n      0xffffffffffffffffffffffffffffffffffffffffffffffffffffffffffffffff\n        /* \"#utility.yul\":15940:15949   */\n      dup3\n        /* \"#utility.yul\":15921:16018   */\n      tag_163\n      jump\t// in\n    tag_323:\n        /* \"#utility.yul\":16039:16078   */\n      tag_324\n        /* \"#utility.yul\":16069:16077   */\n      dup7\n        /* \"#utility.yul\":16058:16067   */\n      dup4\n        /* \"#utility.yul\":16039:16078   */\n      tag_163\n      jump\t// in\n    tag_324:\n        /* \"#utility.yul\":16027:16078   */\n      swap6\n      pop\n        /* \"#utility.yul\":16111:16115   */\n      dup1\n        /* \"#utility.yul\":16107:16116   */\n      not\n        /* \"#utility.yul\":16100:16105   */\n      dup5\n        /* \"#utility.yul\":16096:16117   */\n      and\n        /* \"#utility.yul\":16087:16117   */\n      swap4\n      pop\n        /* \"#utility.yul\":16160:16164   */\n      dup1\n        /* \"#utility.yul\":16150:16158   */\n      dup7\n        /* \"#utility.yul\":16146:16165   */\n      and\n        /* \"#utility.yul\":16139:16144   */\n      dup5\n        /* \"#utility.yul\":16136:16166   */\n      or\n        /* \"#utility.yul\":16126:16166   */\n      swap3\n      pop\n        /* \"#utility.yul\":15855:16172   */\n      pop\n      pop\n        /* \"#utility.yul\":15779:16172   */\n      swap4\n      swap3\n      pop\n      pop\n      pop\n      jump\t// out\n        /* \"#utility.yul\":16178:16238   */\n    tag_165:\n        /* \"#utility.yul\":16206:16209   */\n      0x00\n        /* \"#utility.yul\":16227:16232   */\n      dup2\n        /* \"#utility.yul\":16220:16232   */\n      swap1\n      pop\n        /* \"#utility.yul\":16178:16238   */\n      swap2\n      swap1\n      pop\n      jump\t// out\n        /* \"#utility.yul\":16244:16386   */\n    tag_166:\n        /* \"#utility.yul\":16294:16303   */\n      0x00\n        /* \"#utility.yul\":16327:16380   */\n      tag_327\n        /* \"#utility.yul\":16345:16379   */\n      tag_328\n        /* \"#utility.yul\":16354:16378   */\n      tag_329\n        /* \"#utility.yul\":16372:16377   */\n      dup5\n        /* \"#utility.yul\":16354:16378   */\n      tag_119\n      jump\t// in\n    tag_329:\n        /* \"#utility.yul\":16345:16379   */\n      tag_165\n      jump\t// in\n    tag_328:\n        /* \"#utility.yul\":16327:16380   */\n      tag_119\n      jump\t// in\n    tag_327:\n        /* \"#utility.yul\":16314:16380   */\n      swap1\n      pop\n        /* \"#utility.yul\":16244:16386   */\n      swap2\n      swap1\n      pop\n      jump\t// out\n        /* \"#utility.yul\":16392:16467   */\n    tag_167:\n        /* \"#utility.yul\":16435:16438   */\n      0x00\n        /* \"#utility.yul\":16456:16461   */\n      dup2\n        /* \"#utility.yul\":16449:16461   */\n      swap1\n      pop\n        /* \"#utility.yul\":16392:16467   */\n      swap2\n      swap1\n      pop\n      jump\t// out\n        /* \"#utility.yul\":16473:16742   */\n    tag_168:\n        /* \"#utility.yul\":16583:16622   */\n      tag_332\n        /* \"#utility.yul\":16614:16621   */\n      dup4\n        /* \"#utility.yul\":16583:16622   */\n      tag_166\n      jump\t// in\n    tag_332:\n        /* \"#utility.yul\":16644:16735   */\n      tag_333\n        /* \"#utility.yul\":16693:16734   */\n      tag_334\n        /* \"#utility.yul\":16717:16733   */\n      dup3\n        /* \"#utility.yul\":16693:16734   */\n      tag_167\n      jump\t// in\n    tag_334:\n        /* \"#utility.yul\":16685:16691   */\n      dup5\n        /* \"#utility.yul\":16678:16682   */\n      dup5\n        /* \"#utility.yul\":16672:16683   */\n      sload\n        /* \"#utility.yul\":16644:16735   */\n      tag_164\n      jump\t// in\n    tag_333:\n        /* \"#utility.yul\":16638:16642   */\n      dup3\n        /* \"#utility.yul\":16631:16736   */\n      sstore\n        /* \"#utility.yul\":16549:16742   */\n      pop\n        /* \"#utility.yul\":16473:16742   */\n      pop\n      pop\n      pop\n      jump\t// out\n        /* \"#utility.yul\":16748:16821   */\n    tag_169:\n        /* \"#utility.yul\":16793:16796   */\n      0x00\n        /* \"#utility.yul\":16748:16821   */\n      swap1\n      jump\t// out\n        /* \"#utility.yul\":16827:17016   */\n    tag_170:\n        /* \"#utility.yul\":16904:16936   */\n      tag_337\n      tag_169\n      jump\t// in\n    tag_337:\n        /* \"#utility.yul\":16945:17010   */\n      tag_338\n        /* \"#utility.yul\":17003:17009   */\n      dup2\n        /* \"#utility.yul\":16995:17001   */\n      dup5\n        /* \"#utility.yul\":16989:16993   */\n      dup5\n        /* \"#utility.yul\":16945:17010   */\n      tag_168\n      jump\t// in\n    tag_338:\n        /* \"#utility.yul\":16880:17016   */\n      pop\n        /* \"#utility.yul\":16827:17016   */\n      pop\n      pop\n      jump\t// out\n        /* \"#utility.yul\":17022:17208   */\n    tag_171:\n        /* \"#utility.yul\":17082:17202   */\n    tag_340:\n        /* \"#utility.yul\":17099:17102   */\n      dup2\n        /* \"#utility.yul\":17092:17097   */\n      dup2\n        /* \"#utility.yul\":17089:17103   */\n      lt\n        /* \"#utility.yul\":17082:17202   */\n      iszero\n      tag_342\n      jumpi\n        /* \"#utility.yul\":17153:17192   */\n      tag_343\n        /* \"#utility.yul\":17190:17191   */\n      0x00\n        /* \"#utility.yul\":17183:17188   */\n      dup3\n        /* \"#utility.yul\":17153:17192   */\n      tag_170\n      jump\t// in\n    tag_343:\n        /* \"#utility.yul\":17126:17127   */\n      0x01\n        /* \"#utility.yul\":17119:17124   */\n      dup2\n        /* \"#utility.yul\":17115:17128   */\n      add\n        /* \"#utility.yul\":17106:17128   */\n      swap1\n      pop\n        /* \"#utility.yul\":17082:17202   */\n      jump(tag_340)\n    tag_342:\n        /* \"#utility.yul\":17022:17208   */\n      pop\n      pop\n      jump\t// out\n        /* \"#utility.yul\":17214:17757   */\n    tag_172:\n        /* \"#utility.yul\":17315:17317   */\n      0x1f\n        /* \"#utility.yul\":17310:17313   */\n      dup3\n        /* \"#utility.yul\":17307:17318   */\n      gt\n        /* \"#utility.yul\":17304:17750   */\n      iszero\n      tag_345\n      jumpi\n        /* \"#utility.yul\":17349:17387   */\n      tag_346\n        /* \"#utility.yul\":17381:17386   */\n      dup2\n        /* \"#utility.yul\":17349:17387   */\n      tag_161\n      jump\t// in\n    tag_346:\n        /* \"#utility.yul\":17433:17462   */\n      tag_347\n        /* \"#utility.yul\":17451:17461   */\n      dup5\n        /* \"#utility.yul\":17433:17462   */\n      tag_162\n      jump\t// in\n    tag_347:\n        /* \"#utility.yul\":17423:17431   */\n      dup2\n        /* \"#utility.yul\":17419:17463   */\n      add\n        /* \"#utility.yul\":17616:17618   */\n      0x20\n        /* \"#utility.yul\":17604:17614   */\n      dup6\n        /* \"#utility.yul\":17601:17619   */\n      lt\n        /* \"#utility.yul\":17598:17647   */\n      iszero\n      tag_348\n      jumpi\n        /* \"#utility.yul\":17637:17645   */\n      dup2\n        /* \"#utility.yul\":17622:17645   */\n      swap1\n      pop\n        /* \"#utility.yul\":17598:17647   */\n    tag_348:\n        /* \"#utility.yul\":17660:17740   */\n      tag_349\n        /* \"#utility.yul\":17716:17738   */\n      tag_350\n        /* \"#utility.yul\":17734:17737   */\n      dup6\n        /* \"#utility.yul\":17716:17738   */\n      tag_162\n      jump\t// in\n    tag_350:\n        /* \"#utility.yul\":17706:17714   */\n      dup4\n        /* \"#utility.yul\":17702:17739   */\n      add\n        /* \"#utility.yul\":17689:17700   */\n      dup3\n        /* \"#utility.yul\":17660:17740   */\n      tag_171\n      jump\t// in\n    tag_349:\n        /* \"#utility.yul\":17319:17750   */\n      pop\n      pop\n        /* \"#utility.yul\":17304:17750   */\n    tag_345:\n        /* \"#utility.yul\":17214:17757   */\n      pop\n      pop\n      pop\n      jump\t// out\n        /* \"#utility.yul\":17763:17880   */\n    tag_173:\n        /* \"#utility.yul\":17817:17825   */\n      0x00\n        /* \"#utility.yul\":17867:17872   */\n      dup3\n        /* \"#utility.yul\":17861:17865   */\n      dup3\n        /* \"#utility.yul\":17857:17873   */\n      shr\n        /* \"#utility.yul\":17836:17873   */\n      swap1\n      pop\n        /* \"#utility.yul\":17763:17880   */\n      swap3\n      swap2\n      pop\n      pop\n      jump\t// out\n        /* \"#utility.yul\":17886:18055   */\n    tag_174:\n        /* \"#utility.yul\":17930:17936   */\n      0x00\n        /* \"#utility.yul\":17963:18014   */\n      tag_353\n        /* \"#utility.yul\":18011:18012   */\n      0x00\n        /* \"#utility.yul\":18007:18013   */\n      not\n        /* \"#utility.yul\":17999:18004   */\n      dup5\n        /* \"#utility.yul\":17996:17997   */\n      0x08\n        /* \"#utility.yul\":17992:18005   */\n      mul\n        /* \"#utility.yul\":17963:18014   */\n      tag_173\n      jump\t// in\n    tag_353:\n        /* \"#utility.yul\":17959:18015   */\n      not\n        /* \"#utility.yul\":18044:18048   */\n      dup1\n        /* \"#utility.yul\":18038:18042   */\n      dup4\n        /* \"#utility.yul\":18034:18049   */\n      and\n        /* \"#utility.yul\":18024:18049   */\n      swap2\n      pop\n        /* \"#utility.yul\":17937:18055   */\n      pop\n        /* \"#utility.yul\":17886:18055   */\n      swap3\n      swap2\n      pop\n      pop\n      jump\t// out\n        /* \"#utility.yul\":18060:18355   */\n    tag_175:\n        /* \"#utility.yul\":18136:18140   */\n      0x00\n        /* \"#utility.yul\":18282:18311   */\n      tag_355\n        /* \"#utility.yul\":18307:18310   */\n      dup4\n        /* \"#utility.yul\":18301:18305   */\n      dup4\n        /* \"#utility.yul\":18282:18311   */\n      tag_174\n      jump\t// in\n    tag_355:\n        /* \"#utility.yul\":18274:18311   */\n      swap2\n      pop\n        /* \"#utility.yul\":18344:18347   */\n      dup3\n        /* \"#utility.yul\":18341:18342   */\n      0x02\n        /* \"#utility.yul\":18337:18348   */\n      mul\n        /* \"#utility.yul\":18331:18335   */\n      dup3\n        /* \"#utility.yul\":18328:18349   */\n      or\n        /* \"#utility.yul\":18320:18349   */\n      swap1\n      pop\n        /* \"#utility.yul\":18060:18355   */\n      swap3\n      swap2\n      pop\n      pop\n      jump\t// out\n        /* \"#utility.yul\":18360:19755   */\n    tag_81:\n        /* \"#utility.yul\":18477:18514   */\n      tag_357\n        /* \"#utility.yul\":18510:18513   */\n      dup3\n        /* \"#utility.yul\":18477:18514   */\n      tag_123\n      jump\t// in\n    tag_357:\n        /* \"#utility.yul\":18579:18597   */\n      0xffffffffffffffff\n        /* \"#utility.yul\":18571:18577   */\n      dup2\n        /* \"#utility.yul\":18568:18598   */\n      gt\n        /* \"#utility.yul\":18565:18621   */\n      iszero\n      tag_358\n      jumpi\n        /* \"#utility.yul\":18601:18619   */\n      tag_359\n      tag_97\n      jump\t// in\n    tag_359:\n        /* \"#utility.yul\":18565:18621   */\n    tag_358:\n        /* \"#utility.yul\":18645:18683   */\n      tag_360\n        /* \"#utility.yul\":18677:18681   */\n      dup3\n        /* \"#utility.yul\":18671:18682   */\n      sload\n        /* \"#utility.yul\":18645:18683   */\n      tag_70\n      jump\t// in\n    tag_360:\n        /* \"#utility.yul\":18730:18797   */\n      tag_361\n        /* \"#utility.yul\":18790:18796   */\n      dup3\n        /* \"#utility.yul\":18782:18788   */\n      dup3\n        /* \"#utility.yul\":18776:18780   */\n      dup6\n        /* \"#utility.yul\":18730:18797   */\n      tag_172\n      jump\t// in\n    tag_361:\n        /* \"#utility.yul\":18824:18825   */\n      0x00\n        /* \"#utility.yul\":18848:18852   */\n      0x20\n        /* \"#utility.yul\":18835:18852   */\n      swap1\n      pop\n        /* \"#utility.yul\":18880:18882   */\n      0x1f\n        /* \"#utility.yul\":18872:18878   */\n      dup4\n        /* \"#utility.yul\":18869:18883   */\n      gt\n        /* \"#utility.yul\":18897:18898   */\n      0x01\n        /* \"#utility.yul\":18892:19510   */\n      dup2\n      eq\n      tag_363\n      jumpi\n        /* \"#utility.yul\":19554:19555   */\n      0x00\n        /* \"#utility.yul\":19571:19577   */\n      dup5\n        /* \"#utility.yul\":19568:19645   */\n      iszero\n      tag_364\n      jumpi\n        /* \"#utility.yul\":19620:19629   */\n      dup3\n        /* \"#utility.yul\":19615:19618   */\n      dup8\n        /* \"#utility.yul\":19611:19630   */\n      add\n        /* \"#utility.yul\":19605:19631   */\n      mload\n        /* \"#utility.yul\":19596:19631   */\n      swap1\n      pop\n        /* \"#utility.yul\":19568:19645   */\n    tag_364:\n        /* \"#utility.yul\":19671:19738   */\n      tag_365\n        /* \"#utility.yul\":19731:19737   */\n      dup6\n        /* \"#utility.yul\":19724:19729   */\n      dup3\n        /* \"#utility.yul\":19671:19738   */\n      tag_175\n      jump\t// in\n    tag_365:\n        /* \"#utility.yul\":19665:19669   */\n      dup7\n        /* \"#utility.yul\":19658:19739   */\n      sstore\n        /* \"#utility.yul\":19527:19749   */\n      pop\n        /* \"#utility.yul\":18862:19749   */\n      jump(tag_362)\n        /* \"#utility.yul\":18892:19510   */\n    tag_363:\n        /* \"#utility.yul\":18944:18948   */\n      0x1f\n        /* \"#utility.yul\":18940:18949   */\n      not\n        /* \"#utility.yul\":18932:18938   */\n      dup5\n        /* \"#utility.yul\":18928:18950   */\n      and\n        /* \"#utility.yul\":18978:19015   */\n      tag_366\n        /* \"#utility.yul\":19010:19014   */\n      dup7\n        /* \"#utility.yul\":18978:19015   */\n      tag_161\n      jump\t// in\n    tag_366:\n        /* \"#utility.yul\":19037:19038   */\n      0x00\n        /* \"#utility.yul\":19051:19259   */\n    tag_367:\n        /* \"#utility.yul\":19065:19072   */\n      dup3\n        /* \"#utility.yul\":19062:19063   */\n      dup2\n        /* \"#utility.yul\":19059:19073   */\n      lt\n        /* \"#utility.yul\":19051:19259   */\n      iszero\n      tag_369\n      jumpi\n        /* \"#utility.yul\":19144:19153   */\n      dup5\n        /* \"#utility.yul\":19139:19142   */\n      dup10\n        /* \"#utility.yul\":19135:19154   */\n      add\n        /* \"#utility.yul\":19129:19155   */\n      mload\n        /* \"#utility.yul\":19121:19127   */\n      dup3\n        /* \"#utility.yul\":19114:19156   */\n      sstore\n        /* \"#utility.yul\":19195:19196   */\n      0x01\n        /* \"#utility.yul\":19187:19193   */\n      dup3\n        /* \"#utility.yul\":19183:19197   */\n      add\n        /* \"#utility.yul\":19173:19197   */\n      swap2\n      pop\n        /* \"#utility.yul\":19242:19244   */\n      0x20\n        /* \"#utility.yul\":19231:19240   */\n      dup6\n        /* \"#utility.yul\":19227:19245   */\n      add\n        /* \"#utility.yul\":19214:19245   */\n      swap5\n      pop\n        /* \"#utility.yul\":19088:19092   */\n      0x20\n        /* \"#utility.yul\":19085:19086   */\n      dup2\n        /* \"#utility.yul\":19081:19093   */\n      add\n        /* \"#utility.yul\":19076:19093   */\n      swap1\n      pop\n        /* \"#utility.yul\":19051:19259   */\n      jump(tag_367)\n    tag_369:\n        /* \"#utility.yul\":19287:19293   */\n      dup7\n        /* \"#utility.yul\":19278:19285   */\n      dup4\n        /* \"#utility.yul\":19275:19294   */\n      lt\n        /* \"#utility.yul\":19272:19451   */\n      iszero\n      tag_370\n      jumpi\n        /* \"#utility.yul\":19345:19354   */\n      dup5\n        /* \"#utility.yul\":19340:19343   */\n      dup10\n        /* \"#utility.yul\":19336:19355   */\n      add\n        /* \"#utility.yul\":19330:19356   */\n      mload\n        /* \"#utility.yul\":19388:19436   */\n      tag_371\n        /* \"#utility.yul\":19430:19434   */\n      0x1f\n        /* \"#utility.yul\":19422:19428   */\n      dup10\n        /* \"#utility.yul\":19418:19435   */\n      and\n        /* \"#utility.yul\":19407:19416   */\n      dup3\n        /* \"#utility.yul\":19388:19436   */\n      tag_174\n      jump\t// in\n    tag_371:\n        /* \"#utility.yul\":19380:19386   */\n      dup4\n        /* \"#utility.yul\":19373:19437   */\n      sstore\n        /* \"#utility.yul\":19295:19451   */\n      pop\n        /* \"#utility.yul\":19272:19451   */\n    tag_370:\n        /* \"#utility.yul\":19497:19498   */\n      0x01\n        /* \"#utility.yul\":19493:19494   */\n      0x02\n        /* \"#utility.yul\":19485:19491   */\n      dup9\n        /* \"#utility.yul\":19481:19495   */\n      mul\n        /* \"#utility.yul\":19477:19499   */\n      add\n        /* \"#utility.yul\":19471:19475   */\n      dup9\n        /* \"#utility.yul\":19464:19500   */\n      sstore\n        /* \"#utility.yul\":18899:19510   */\n      pop\n      pop\n      pop\n        /* \"#utility.yul\":18862:19749   */\n    tag_362:\n      pop\n        /* \"#utility.yul\":18452:19755   */\n      pop\n      pop\n      pop\n        /* \"#utility.yul\":18360:19755   */\n      pop\n      pop\n      jump\t// out\n        /* \"#utility.yul\":19761:19941   */\n    tag_107:\n        /* \"#utility.yul\":19809:19886   */\n      0x4e487b7100000000000000000000000000000000000000000000000000000000\n        /* \"#utility.yul\":19806:19807   */\n      0x00\n        /* \"#utility.yul\":19799:19887   */\n      mstore\n        /* \"#utility.yul\":19906:19910   */\n      0x32\n        /* \"#utility.yul\":19903:19904   */\n      0x04\n        /* \"#utility.yul\":19896:19911   */\n      mstore\n        /* \"#utility.yul\":19930:19934   */\n      0x24\n        /* \"#utility.yul\":19927:19928   */\n      0x00\n        /* \"#utility.yul\":19920:19935   */\n      revert\n\n    auxdata: 0xa2646970667358221220fd6bc5dd80c797e23f382a0633bfc72d8755f69e85a587f8c265a19fdae229b764736f6c634300081a0033\n}\n",
				"bytecode": {
					"linkReferences": {},
					"object": "6080604052348015600e575f80fd5b50335f806101000a81548173ffffffffffffffffffffffffffffffffffffffff021916908373ffffffffffffffffffffffffffffffffffffffff1602179055506112748061005b5f395ff3fe608060405234801561000f575f80fd5b506004361061009c575f3560e01c8063462e91ec11610064578063462e91ec1461015a5780634717f97c14610176578063a3ec138d14610195578063f0f5274e146101c5578063f851a440146101e35761009c565b80630121b93f146100a057806303016130146100bc5780630d15fd77146100ec5780632d35a8a21461010a5780633477ee2e14610128575b5f80fd5b6100ba60048036038101906100b5919061089d565b610201565b005b6100d660048036038101906100d1919061089d565b610372565b6040516100e391906108d7565b60405180910390f35b6100f4610392565b60405161010191906108d7565b60405180910390f35b610112610398565b60405161011f91906108d7565b60405180910390f35b610142600480360381019061013d919061089d565b61039e565b60405161015193929190610960565b60405180910390f35b610174600480360381019061016f9190610ac8565b61044a565b005b61017e610574565b60405161018c929190610b0f565b60405180910390f35b6101af60048036038101906101aa9190610b97565b61067f565b6040516101bc9190610bdc565b60405180910390f35b6101cd61069c565b6040516101da9190610d54565b60405180910390f35b6101eb610817565b6040516101f89190610d83565b60405180910390f35b60015f3373ffffffffffffffffffffffffffffffffffffffff1673ffffffffffffffffffffffffffffffffffffffff1681526020019081526020015f205f9054906101000a900460ff161561028b576040517f08c379a000000000000000000000000000000000000000000000000000000000815260040161028290610de6565b60405180910390fd5b5f8111801561029c57506003548111155b6102db576040517f08c379a00000000000000000000000000000000000000000000000000000000081526004016102d290610e4e565b60405180910390fd5b6001805f3373ffffffffffffffffffffffffffffffffffffffff1673ffffffffffffffffffffffffffffffffffffffff1681526020019081526020015f205f6101000a81548160ff02191690831515021790555060025f8281526020019081526020015f206002015f81548092919061035390610e99565b919050555060045f81548092919061036a90610e99565b919050555050565b60058181548110610381575f80fd5b905f5260205f20015f915090505481565b60045481565b60035481565b6002602052805f5260405f205f91509050805f0154908060010180546103c390610f0d565b80601f01602080910402602001604051908101604052809291908181526020018280546103ef90610f0d565b801561043a5780601f106104115761010080835404028352916020019161043a565b820191905f5260205f20905b81548152906001019060200180831161041d57829003601f168201915b5050505050908060020154905083565b5f8054906101000a900473ffffffffffffffffffffffffffffffffffffffff1673ffffffffffffffffffffffffffffffffffffffff163373ffffffffffffffffffffffffffffffffffffffff16146104d7576040517f08c379a00000000000000000000000000000000000000000000000000000000081526004016104ce90610f87565b60405180910390fd5b60035f8154809291906104e990610e99565b9190505550604051806060016040528060035481526020018281526020015f81525060025f60035481526020019081526020015f205f820151815f0155602082015181600101908161053b9190611142565b50604082015181600201559050506005600354908060018154018082558091505060019003905f5260205f20015f909190919091505550565b60605f805f90505f80600190505b60035481116105d5578260025f8381526020019081526020015f206002015411156105c25760025f8281526020019081526020015f206002015492508091505b80806105cd90610e99565b915050610582565b5060025f8281526020019081526020015f20600101828180546105f790610f0d565b80601f016020809104026020016040519081016040528092919081815260200182805461062390610f0d565b801561066e5780601f106106455761010080835404028352916020019161066e565b820191905f5260205f20905b81548152906001019060200180831161065157829003601f168201915b505050505091509350935050509091565b6001602052805f5260405f205f915054906101000a900460ff1681565b60605f60058054905067ffffffffffffffff8111156106be576106bd6109a4565b5b6040519080825280602002602001820160405280156106f757816020015b6106e461083a565b8152602001906001900390816106dc5790505b5090505f5b60058054905081101561080f5760025f600583815481106107205761071f611211565b5b905f5260205f20015481526020019081526020015f206040518060600160405290815f820154815260200160018201805461075a90610f0d565b80601f016020809104026020016040519081016040528092919081815260200182805461078690610f0d565b80156107d15780601f106107a8576101008083540402835291602001916107d1565b820191905f5260205f20905b8154815290600101906020018083116107b457829003601f168201915b505050505081526020016002820154815250508282815181106107f7576107f6611211565b5b602002602001018190525080806001019150506106fc565b508091505090565b5f8054906101000a900473ffffffffffffffffffffffffffffffffffffffff1681565b60405180606001604052805f8152602001606081526020015f81525090565b5f604051905090565b5f80fd5b5f80fd5b5f819050919050565b61087c8161086a565b8114610886575f80fd5b50565b5f8135905061089781610873565b92915050565b5f602082840312156108b2576108b1610862565b5b5f6108bf84828501610889565b91505092915050565b6108d18161086a565b82525050565b5f6020820190506108ea5f8301846108c8565b92915050565b5f81519050919050565b5f82825260208201905092915050565b8281835e5f83830152505050565b5f601f19601f8301169050919050565b5f610932826108f0565b61093c81856108fa565b935061094c81856020860161090a565b61095581610918565b840191505092915050565b5f6060820190506109735f8301866108c8565b81810360208301526109858185610928565b905061099460408301846108c8565b949350505050565b5f80fd5b5f80fd5b7f4e487b71000000000000000000000000000000000000000000000000000000005f52604160045260245ffd5b6109da82610918565b810181811067ffffffffffffffff821117156109f9576109f86109a4565b5b80604052505050565b5f610a0b610859565b9050610a1782826109d1565b919050565b5f67ffffffffffffffff821115610a3657610a356109a4565b5b610a3f82610918565b9050602081019050919050565b828183375f83830152505050565b5f610a6c610a6784610a1c565b610a02565b905082815260208101848484011115610a8857610a876109a0565b5b610a93848285610a4c565b509392505050565b5f82601f830112610aaf57610aae61099c565b5b8135610abf848260208601610a5a565b91505092915050565b5f60208284031215610add57610adc610862565b5b5f82013567ffffffffffffffff811115610afa57610af9610866565b5b610b0684828501610a9b565b91505092915050565b5f6040820190508181035f830152610b278185610928565b9050610b3660208301846108c8565b9392505050565b5f73ffffffffffffffffffffffffffffffffffffffff82169050919050565b5f610b6682610b3d565b9050919050565b610b7681610b5c565b8114610b80575f80fd5b50565b5f81359050610b9181610b6d565b92915050565b5f60208284031215610bac57610bab610862565b5b5f610bb984828501610b83565b91505092915050565b5f8115159050919050565b610bd681610bc2565b82525050565b5f602082019050610bef5f830184610bcd565b92915050565b5f81519050919050565b5f82825260208201905092915050565b5f819050602082019050919050565b610c278161086a565b82525050565b5f82825260208201905092915050565b5f610c47826108f0565b610c518185610c2d565b9350610c6181856020860161090a565b610c6a81610918565b840191505092915050565b5f606083015f830151610c8a5f860182610c1e565b5060208301518482036020860152610ca28282610c3d565b9150506040830151610cb76040860182610c1e565b508091505092915050565b5f610ccd8383610c75565b905092915050565b5f602082019050919050565b5f610ceb82610bf5565b610cf58185610bff565b935083602082028501610d0785610c0f565b805f5b85811015610d425784840389528151610d238582610cc2565b9450610d2e83610cd5565b925060208a01995050600181019050610d0a565b50829750879550505050505092915050565b5f6020820190508181035f830152610d6c8184610ce1565b905092915050565b610d7d81610b5c565b82525050565b5f602082019050610d965f830184610d74565b92915050565b7f596f75206861766520616c726561647920766f7465642e0000000000000000005f82015250565b5f610dd06017836108fa565b9150610ddb82610d9c565b602082019050919050565b5f6020820190508181035f830152610dfd81610dc4565b9050919050565b7f496e76616c69642063616e6469646174652e00000000000000000000000000005f82015250565b5f610e386012836108fa565b9150610e4382610e04565b602082019050919050565b5f6020820190508181035f830152610e6581610e2c565b9050919050565b7f4e487b71000000000000000000000000000000000000000000000000000000005f52601160045260245ffd5b5f610ea38261086a565b91507fffffffffffffffffffffffffffffffffffffffffffffffffffffffffffffffff8203610ed557610ed4610e6c565b5b600182019050919050565b7f4e487b71000000000000000000000000000000000000000000000000000000005f52602260045260245ffd5b5f6002820490506001821680610f2457607f821691505b602082108103610f3757610f36610ee0565b5b50919050565b7f4f6e6c792061646d696e2063616e206164642063616e646964617465730000005f82015250565b5f610f71601d836108fa565b9150610f7c82610f3d565b602082019050919050565b5f6020820190508181035f830152610f9e81610f65565b9050919050565b5f819050815f5260205f209050919050565b5f6020601f8301049050919050565b5f82821b905092915050565b5f600883026110017fffffffffffffffffffffffffffffffffffffffffffffffffffffffffffffffff82610fc6565b61100b8683610fc6565b95508019841693508086168417925050509392505050565b5f819050919050565b5f61104661104161103c8461086a565b611023565b61086a565b9050919050565b5f819050919050565b61105f8361102c565b61107361106b8261104d565b848454610fd2565b825550505050565b5f90565b61108761107b565b611092818484611056565b505050565b5b818110156110b5576110aa5f8261107f565b600181019050611098565b5050565b601f8211156110fa576110cb81610fa5565b6110d484610fb7565b810160208510156110e3578190505b6110f76110ef85610fb7565b830182611097565b50505b505050565b5f82821c905092915050565b5f61111a5f19846008026110ff565b1980831691505092915050565b5f611132838361110b565b9150826002028217905092915050565b61114b826108f0565b67ffffffffffffffff811115611164576111636109a4565b5b61116e8254610f0d565b6111798282856110b9565b5f60209050601f8311600181146111aa575f8415611198578287015190505b6111a28582611127565b865550611209565b601f1984166111b886610fa5565b5f5b828110156111df578489015182556001820191506020850194506020810190506111ba565b868310156111fc57848901516111f8601f89168261110b565b8355505b6001600288020188555050505b505050505050565b7f4e487b71000000000000000000000000000000000000000000000000000000005f52603260045260245ffdfea2646970667358221220fd6bc5dd80c797e23f382a0633bfc72d8755f69e85a587f8c265a19fdae229b764736f6c634300081a0033",
					"opcodes": "PUSH1 0x80 PUSH1 0x40 MSTORE CALLVALUE DUP1 ISZERO PUSH1 0xE JUMPI PUSH0 DUP1 REVERT JUMPDEST POP CALLER PUSH0 DUP1 PUSH2 0x100 EXP DUP2 SLOAD DUP2 PUSH20 0xFFFFFFFFFFFFFFFFFFFFFFFFFFFFFFFFFFFFFFFF MUL NOT AND SWAP1 DUP4 PUSH20 0xFFFFFFFFFFFFFFFFFFFFFFFFFFFFFFFFFFFFFFFF AND MUL OR SWAP1 SSTORE POP PUSH2 0x1274 DUP1 PUSH2 0x5B PUSH0 CODECOPY PUSH0 RETURN INVALID PUSH1 0x80 PUSH1 0x40 MSTORE CALLVALUE DUP1 ISZERO PUSH2 0xF JUMPI PUSH0 DUP1 REVERT JUMPDEST POP PUSH1 0x4 CALLDATASIZE LT PUSH2 0x9C JUMPI PUSH0 CALLDATALOAD PUSH1 0xE0 SHR DUP1 PUSH4 0x462E91EC GT PUSH2 0x64 JUMPI DUP1 PUSH4 0x462E91EC EQ PUSH2 0x15A JUMPI DUP1 PUSH4 0x4717F97C EQ PUSH2 0x176 JUMPI DUP1 PUSH4 0xA3EC138D EQ PUSH2 0x195 JUMPI DUP1 PUSH4 0xF0F5274E EQ PUSH2 0x1C5 JUMPI DUP1 PUSH4 0xF851A440 EQ PUSH2 0x1E3 JUMPI PUSH2 0x9C JUMP JUMPDEST DUP1 PUSH4 0x121B93F EQ PUSH2 0xA0 JUMPI DUP1 PUSH4 0x3016130 EQ PUSH2 0xBC JUMPI DUP1 PUSH4 0xD15FD77 EQ PUSH2 0xEC JUMPI DUP1 PUSH4 0x2D35A8A2 EQ PUSH2 0x10A JUMPI DUP1 PUSH4 0x3477EE2E EQ PUSH2 0x128 JUMPI JUMPDEST PUSH0 DUP1 REVERT JUMPDEST PUSH2 0xBA PUSH1 0x4 DUP1 CALLDATASIZE SUB DUP2 ADD SWAP1 PUSH2 0xB5 SWAP2 SWAP1 PUSH2 0x89D JUMP JUMPDEST PUSH2 0x201 JUMP JUMPDEST STOP JUMPDEST PUSH2 0xD6 PUSH1 0x4 DUP1 CALLDATASIZE SUB DUP2 ADD SWAP1 PUSH2 0xD1 SWAP2 SWAP1 PUSH2 0x89D JUMP JUMPDEST PUSH2 0x372 JUMP JUMPDEST PUSH1 0x40 MLOAD PUSH2 0xE3 SWAP2 SWAP1 PUSH2 0x8D7 JUMP JUMPDEST PUSH1 0x40 MLOAD DUP1 SWAP2 SUB SWAP1 RETURN JUMPDEST PUSH2 0xF4 PUSH2 0x392 JUMP JUMPDEST PUSH1 0x40 MLOAD PUSH2 0x101 SWAP2 SWAP1 PUSH2 0x8D7 JUMP JUMPDEST PUSH1 0x40 MLOAD DUP1 SWAP2 SUB SWAP1 RETURN JUMPDEST PUSH2 0x112 PUSH2 0x398 JUMP JUMPDEST PUSH1 0x40 MLOAD PUSH2 0x11F SWAP2 SWAP1 PUSH2 0x8D7 JUMP JUMPDEST PUSH1 0x40 MLOAD DUP1 SWAP2 SUB SWAP1 RETURN JUMPDEST PUSH2 0x142 PUSH1 0x4 DUP1 CALLDATASIZE SUB DUP2 ADD SWAP1 PUSH2 0x13D SWAP2 SWAP1 PUSH2 0x89D JUMP JUMPDEST PUSH2 0x39E JUMP JUMPDEST PUSH1 0x40 MLOAD PUSH2 0x151 SWAP4 SWAP3 SWAP2 SWAP1 PUSH2 0x960 JUMP JUMPDEST PUSH1 0x40 MLOAD DUP1 SWAP2 SUB SWAP1 RETURN JUMPDEST PUSH2 0x174 PUSH1 0x4 DUP1 CALLDATASIZE SUB DUP2 ADD SWAP1 PUSH2 0x16F SWAP2 SWAP1 PUSH2 0xAC8 JUMP JUMPDEST PUSH2 0x44A JUMP JUMPDEST STOP JUMPDEST PUSH2 0x17E PUSH2 0x574 JUMP JUMPDEST PUSH1 0x40 MLOAD PUSH2 0x18C SWAP3 SWAP2 SWAP1 PUSH2 0xB0F JUMP JUMPDEST PUSH1 0x40 MLOAD DUP1 SWAP2 SUB SWAP1 RETURN JUMPDEST PUSH2 0x1AF PUSH1 0x4 DUP1 CALLDATASIZE SUB DUP2 ADD SWAP1 PUSH2 0x1AA SWAP2 SWAP1 PUSH2 0xB97 JUMP JUMPDEST PUSH2 0x67F JUMP JUMPDEST PUSH1 0x40 MLOAD PUSH2 0x1BC SWAP2 SWAP1 PUSH2 0xBDC JUMP JUMPDEST PUSH1 0x40 MLOAD DUP1 SWAP2 SUB SWAP1 RETURN JUMPDEST PUSH2 0x1CD PUSH2 0x69C JUMP JUMPDEST PUSH1 0x40 MLOAD PUSH2 0x1DA SWAP2 SWAP1 PUSH2 0xD54 JUMP JUMPDEST PUSH1 0x40 MLOAD DUP1 SWAP2 SUB SWAP1 RETURN JUMPDEST PUSH2 0x1EB PUSH2 0x817 JUMP JUMPDEST PUSH1 0x40 MLOAD PUSH2 0x1F8 SWAP2 SWAP1 PUSH2 0xD83 JUMP JUMPDEST PUSH1 0x40 MLOAD DUP1 SWAP2 SUB SWAP1 RETURN JUMPDEST PUSH1 0x1 PUSH0 CALLER PUSH20 0xFFFFFFFFFFFFFFFFFFFFFFFFFFFFFFFFFFFFFFFF AND PUSH20 0xFFFFFFFFFFFFFFFFFFFFFFFFFFFFFFFFFFFFFFFF AND DUP2 MSTORE PUSH1 0x20 ADD SWAP1 DUP2 MSTORE PUSH1 0x20 ADD PUSH0 KECCAK256 PUSH0 SWAP1 SLOAD SWAP1 PUSH2 0x100 EXP SWAP1 DIV PUSH1 0xFF AND ISZERO PUSH2 0x28B JUMPI PUSH1 0x40 MLOAD PUSH32 0x8C379A000000000000000000000000000000000000000000000000000000000 DUP2 MSTORE PUSH1 0x4 ADD PUSH2 0x282 SWAP1 PUSH2 0xDE6 JUMP JUMPDEST PUSH1 0x40 MLOAD DUP1 SWAP2 SUB SWAP1 REVERT JUMPDEST PUSH0 DUP2 GT DUP1 ISZERO PUSH2 0x29C JUMPI POP PUSH1 0x3 SLOAD DUP2 GT ISZERO JUMPDEST PUSH2 0x2DB JUMPI PUSH1 0x40 MLOAD PUSH32 0x8C379A000000000000000000000000000000000000000000000000000000000 DUP2 MSTORE PUSH1 0x4 ADD PUSH2 0x2D2 SWAP1 PUSH2 0xE4E JUMP JUMPDEST PUSH1 0x40 MLOAD DUP1 SWAP2 SUB SWAP1 REVERT JUMPDEST PUSH1 0x1 DUP1 PUSH0 CALLER PUSH20 0xFFFFFFFFFFFFFFFFFFFFFFFFFFFFFFFFFFFFFFFF AND PUSH20 0xFFFFFFFFFFFFFFFFFFFFFFFFFFFFFFFFFFFFFFFF AND DUP2 MSTORE PUSH1 0x20 ADD SWAP1 DUP2 MSTORE PUSH1 0x20 ADD PUSH0 KECCAK256 PUSH0 PUSH2 0x100 EXP DUP2 SLOAD DUP2 PUSH1 0xFF MUL NOT AND SWAP1 DUP4 ISZERO ISZERO MUL OR SWAP1 SSTORE POP PUSH1 0x2 PUSH0 DUP3 DUP2 MSTORE PUSH1 0x20 ADD SWAP1 DUP2 MSTORE PUSH1 0x20 ADD PUSH0 KECCAK256 PUSH1 0x2 ADD PUSH0 DUP2 SLOAD DUP1 SWAP3 SWAP2 SWAP1 PUSH2 0x353 SWAP1 PUSH2 0xE99 JUMP JUMPDEST SWAP2 SWAP1 POP SSTORE POP PUSH1 0x4 PUSH0 DUP2 SLOAD DUP1 SWAP3 SWAP2 SWAP1 PUSH2 0x36A SWAP1 PUSH2 0xE99 JUMP JUMPDEST SWAP2 SWAP1 POP SSTORE POP POP JUMP JUMPDEST PUSH1 0x5 DUP2 DUP2 SLOAD DUP2 LT PUSH2 0x381 JUMPI PUSH0 DUP1 REVERT JUMPDEST SWAP1 PUSH0 MSTORE PUSH1 0x20 PUSH0 KECCAK256 ADD PUSH0 SWAP2 POP SWAP1 POP SLOAD DUP2 JUMP JUMPDEST PUSH1 0x4 SLOAD DUP2 JUMP JUMPDEST PUSH1 0x3 SLOAD DUP2 JUMP JUMPDEST PUSH1 0x2 PUSH1 0x20 MSTORE DUP1 PUSH0 MSTORE PUSH1 0x40 PUSH0 KECCAK256 PUSH0 SWAP2 POP SWAP1 POP DUP1 PUSH0 ADD SLOAD SWAP1 DUP1 PUSH1 0x1 ADD DUP1 SLOAD PUSH2 0x3C3 SWAP1 PUSH2 0xF0D JUMP JUMPDEST DUP1 PUSH1 0x1F ADD PUSH1 0x20 DUP1 SWAP2 DIV MUL PUSH1 0x20 ADD PUSH1 0x40 MLOAD SWAP1 DUP2 ADD PUSH1 0x40 MSTORE DUP1 SWAP3 SWAP2 SWAP1 DUP2 DUP2 MSTORE PUSH1 0x20 ADD DUP3 DUP1 SLOAD PUSH2 0x3EF SWAP1 PUSH2 0xF0D JUMP JUMPDEST DUP1 ISZERO PUSH2 0x43A JUMPI DUP1 PUSH1 0x1F LT PUSH2 0x411 JUMPI PUSH2 0x100 DUP1 DUP4 SLOAD DIV MUL DUP4 MSTORE SWAP2 PUSH1 0x20 ADD SWAP2 PUSH2 0x43A JUMP JUMPDEST DUP3 ADD SWAP2 SWAP1 PUSH0 MSTORE PUSH1 0x20 PUSH0 KECCAK256 SWAP1 JUMPDEST DUP2 SLOAD DUP2 MSTORE SWAP1 PUSH1 0x1 ADD SWAP1 PUSH1 0x20 ADD DUP1 DUP4 GT PUSH2 0x41D JUMPI DUP3 SWAP1 SUB PUSH1 0x1F AND DUP3 ADD SWAP2 JUMPDEST POP POP POP POP POP SWAP1 DUP1 PUSH1 0x2 ADD SLOAD SWAP1 POP DUP4 JUMP JUMPDEST PUSH0 DUP1 SLOAD SWAP1 PUSH2 0x100 EXP SWAP1 DIV PUSH20 0xFFFFFFFFFFFFFFFFFFFFFFFFFFFFFFFFFFFFFFFF AND PUSH20 0xFFFFFFFFFFFFFFFFFFFFFFFFFFFFFFFFFFFFFFFF AND CALLER PUSH20 0xFFFFFFFFFFFFFFFFFFFFFFFFFFFFFFFFFFFFFFFF AND EQ PUSH2 0x4D7 JUMPI PUSH1 0x40 MLOAD PUSH32 0x8C379A000000000000000000000000000000000000000000000000000000000 DUP2 MSTORE PUSH1 0x4 ADD PUSH2 0x4CE SWAP1 PUSH2 0xF87 JUMP JUMPDEST PUSH1 0x40 MLOAD DUP1 SWAP2 SUB SWAP1 REVERT JUMPDEST PUSH1 0x3 PUSH0 DUP2 SLOAD DUP1 SWAP3 SWAP2 SWAP1 PUSH2 0x4E9 SWAP1 PUSH2 0xE99 JUMP JUMPDEST SWAP2 SWAP1 POP SSTORE POP PUSH1 0x40 MLOAD DUP1 PUSH1 0x60 ADD PUSH1 0x40 MSTORE DUP1 PUSH1 0x3 SLOAD DUP2 MSTORE PUSH1 0x20 ADD DUP3 DUP2 MSTORE PUSH1 0x20 ADD PUSH0 DUP2 MSTORE POP PUSH1 0x2 PUSH0 PUSH1 0x3 SLOAD DUP2 MSTORE PUSH1 0x20 ADD SWAP1 DUP2 MSTORE PUSH1 0x20 ADD PUSH0 KECCAK256 PUSH0 DUP3 ADD MLOAD DUP2 PUSH0 ADD SSTORE PUSH1 0x20 DUP3 ADD MLOAD DUP2 PUSH1 0x1 ADD SWAP1 DUP2 PUSH2 0x53B SWAP2 SWAP1 PUSH2 0x1142 JUMP JUMPDEST POP PUSH1 0x40 DUP3 ADD MLOAD DUP2 PUSH1 0x2 ADD SSTORE SWAP1 POP POP PUSH1 0x5 PUSH1 0x3 SLOAD SWAP1 DUP1 PUSH1 0x1 DUP2 SLOAD ADD DUP1 DUP3 SSTORE DUP1 SWAP2 POP POP PUSH1 0x1 SWAP1 SUB SWAP1 PUSH0 MSTORE PUSH1 0x20 PUSH0 KECCAK256 ADD PUSH0 SWAP1 SWAP2 SWAP1 SWAP2 SWAP1 SWAP2 POP SSTORE POP JUMP JUMPDEST PUSH1 0x60 PUSH0 DUP1 PUSH0 SWAP1 POP PUSH0 DUP1 PUSH1 0x1 SWAP1 POP JUMPDEST PUSH1 0x3 SLOAD DUP2 GT PUSH2 0x5D5 JUMPI DUP3 PUSH1 0x2 PUSH0 DUP4 DUP2 MSTORE PUSH1 0x20 ADD SWAP1 DUP2 MSTORE PUSH1 0x20 ADD PUSH0 KECCAK256 PUSH1 0x2 ADD SLOAD GT ISZERO PUSH2 0x5C2 JUMPI PUSH1 0x2 PUSH0 DUP3 DUP2 MSTORE PUSH1 0x20 ADD SWAP1 DUP2 MSTORE PUSH1 0x20 ADD PUSH0 KECCAK256 PUSH1 0x2 ADD SLOAD SWAP3 POP DUP1 SWAP2 POP JUMPDEST DUP1 DUP1 PUSH2 0x5CD SWAP1 PUSH2 0xE99 JUMP JUMPDEST SWAP2 POP POP PUSH2 0x582 JUMP JUMPDEST POP PUSH1 0x2 PUSH0 DUP3 DUP2 MSTORE PUSH1 0x20 ADD SWAP1 DUP2 MSTORE PUSH1 0x20 ADD PUSH0 KECCAK256 PUSH1 0x1 ADD DUP3 DUP2 DUP1 SLOAD PUSH2 0x5F7 SWAP1 PUSH2 0xF0D JUMP JUMPDEST DUP1 PUSH1 0x1F ADD PUSH1 0x20 DUP1 SWAP2 DIV MUL PUSH1 0x20 ADD PUSH1 0x40 MLOAD SWAP1 DUP2 ADD PUSH1 0x40 MSTORE DUP1 SWAP3 SWAP2 SWAP1 DUP2 DUP2 MSTORE PUSH1 0x20 ADD DUP3 DUP1 SLOAD PUSH2 0x623 SWAP1 PUSH2 0xF0D JUMP JUMPDEST DUP1 ISZERO PUSH2 0x66E JUMPI DUP1 PUSH1 0x1F LT PUSH2 0x645 JUMPI PUSH2 0x100 DUP1 DUP4 SLOAD DIV MUL DUP4 MSTORE SWAP2 PUSH1 0x20 ADD SWAP2 PUSH2 0x66E JUMP JUMPDEST DUP3 ADD SWAP2 SWAP1 PUSH0 MSTORE PUSH1 0x20 PUSH0 KECCAK256 SWAP1 JUMPDEST DUP2 SLOAD DUP2 MSTORE SWAP1 PUSH1 0x1 ADD SWAP1 PUSH1 0x20 ADD DUP1 DUP4 GT PUSH2 0x651 JUMPI DUP3 SWAP1 SUB PUSH1 0x1F AND DUP3 ADD SWAP2 JUMPDEST POP POP POP POP POP SWAP2 POP SWAP4 POP SWAP4 POP POP POP SWAP1 SWAP2 JUMP JUMPDEST PUSH1 0x1 PUSH1 0x20 MSTORE DUP1 PUSH0 MSTORE PUSH1 0x40 PUSH0 KECCAK256 PUSH0 SWAP2 POP SLOAD SWAP1 PUSH2 0x100 EXP SWAP1 DIV PUSH1 0xFF AND DUP2 JUMP JUMPDEST PUSH1 0x60 PUSH0 PUSH1 0x5 DUP1 SLOAD SWAP1 POP PUSH8 0xFFFFFFFFFFFFFFFF DUP2 GT ISZERO PUSH2 0x6BE JUMPI PUSH2 0x6BD PUSH2 0x9A4 JUMP JUMPDEST JUMPDEST PUSH1 0x40 MLOAD SWAP1 DUP1 DUP3 MSTORE DUP1 PUSH1 0x20 MUL PUSH1 0x20 ADD DUP3 ADD PUSH1 0x40 MSTORE DUP1 ISZERO PUSH2 0x6F7 JUMPI DUP2 PUSH1 0x20 ADD JUMPDEST PUSH2 0x6E4 PUSH2 0x83A JUMP JUMPDEST DUP2 MSTORE PUSH1 0x20 ADD SWAP1 PUSH1 0x1 SWAP1 SUB SWAP1 DUP2 PUSH2 0x6DC JUMPI SWAP1 POP JUMPDEST POP SWAP1 POP PUSH0 JUMPDEST PUSH1 0x5 DUP1 SLOAD SWAP1 POP DUP2 LT ISZERO PUSH2 0x80F JUMPI PUSH1 0x2 PUSH0 PUSH1 0x5 DUP4 DUP2 SLOAD DUP2 LT PUSH2 0x720 JUMPI PUSH2 0x71F PUSH2 0x1211 JUMP JUMPDEST JUMPDEST SWAP1 PUSH0 MSTORE PUSH1 0x20 PUSH0 KECCAK256 ADD SLOAD DUP2 MSTORE PUSH1 0x20 ADD SWAP1 DUP2 MSTORE PUSH1 0x20 ADD PUSH0 KECCAK256 PUSH1 0x40 MLOAD DUP1 PUSH1 0x60 ADD PUSH1 0x40 MSTORE SWAP1 DUP2 PUSH0 DUP3 ADD SLOAD DUP2 MSTORE PUSH1 0x20 ADD PUSH1 0x1 DUP3 ADD DUP1 SLOAD PUSH2 0x75A SWAP1 PUSH2 0xF0D JUMP JUMPDEST DUP1 PUSH1 0x1F ADD PUSH1 0x20 DUP1 SWAP2 DIV MUL PUSH1 0x20 ADD PUSH1 0x40 MLOAD SWAP1 DUP2 ADD PUSH1 0x40 MSTORE DUP1 SWAP3 SWAP2 SWAP1 DUP2 DUP2 MSTORE PUSH1 0x20 ADD DUP3 DUP1 SLOAD PUSH2 0x786 SWAP1 PUSH2 0xF0D JUMP JUMPDEST DUP1 ISZERO PUSH2 0x7D1 JUMPI DUP1 PUSH1 0x1F LT PUSH2 0x7A8 JUMPI PUSH2 0x100 DUP1 DUP4 SLOAD DIV MUL DUP4 MSTORE SWAP2 PUSH1 0x20 ADD SWAP2 PUSH2 0x7D1 JUMP JUMPDEST DUP3 ADD SWAP2 SWAP1 PUSH0 MSTORE PUSH1 0x20 PUSH0 KECCAK256 SWAP1 JUMPDEST DUP2 SLOAD DUP2 MSTORE SWAP1 PUSH1 0x1 ADD SWAP1 PUSH1 0x20 ADD DUP1 DUP4 GT PUSH2 0x7B4 JUMPI DUP3 SWAP1 SUB PUSH1 0x1F AND DUP3 ADD SWAP2 JUMPDEST POP POP POP POP POP DUP2 MSTORE PUSH1 0x20 ADD PUSH1 0x2 DUP3 ADD SLOAD DUP2 MSTORE POP POP DUP3 DUP3 DUP2 MLOAD DUP2 LT PUSH2 0x7F7 JUMPI PUSH2 0x7F6 PUSH2 0x1211 JUMP JUMPDEST JUMPDEST PUSH1 0x20 MUL PUSH1 0x20 ADD ADD DUP2 SWAP1 MSTORE POP DUP1 DUP1 PUSH1 0x1 ADD SWAP2 POP POP PUSH2 0x6FC JUMP JUMPDEST POP DUP1 SWAP2 POP POP SWAP1 JUMP JUMPDEST PUSH0 DUP1 SLOAD SWAP1 PUSH2 0x100 EXP SWAP1 DIV PUSH20 0xFFFFFFFFFFFFFFFFFFFFFFFFFFFFFFFFFFFFFFFF AND DUP2 JUMP JUMPDEST PUSH1 0x40 MLOAD DUP1 PUSH1 0x60 ADD PUSH1 0x40 MSTORE DUP1 PUSH0 DUP2 MSTORE PUSH1 0x20 ADD PUSH1 0x60 DUP2 MSTORE PUSH1 0x20 ADD PUSH0 DUP2 MSTORE POP SWAP1 JUMP JUMPDEST PUSH0 PUSH1 0x40 MLOAD SWAP1 POP SWAP1 JUMP JUMPDEST PUSH0 DUP1 REVERT JUMPDEST PUSH0 DUP1 REVERT JUMPDEST PUSH0 DUP2 SWAP1 POP SWAP2 SWAP1 POP JUMP JUMPDEST PUSH2 0x87C DUP2 PUSH2 0x86A JUMP JUMPDEST DUP2 EQ PUSH2 0x886 JUMPI PUSH0 DUP1 REVERT JUMPDEST POP JUMP JUMPDEST PUSH0 DUP2 CALLDATALOAD SWAP1 POP PUSH2 0x897 DUP2 PUSH2 0x873 JUMP JUMPDEST SWAP3 SWAP2 POP POP JUMP JUMPDEST PUSH0 PUSH1 0x20 DUP3 DUP5 SUB SLT ISZERO PUSH2 0x8B2 JUMPI PUSH2 0x8B1 PUSH2 0x862 JUMP JUMPDEST JUMPDEST PUSH0 PUSH2 0x8BF DUP5 DUP3 DUP6 ADD PUSH2 0x889 JUMP JUMPDEST SWAP2 POP POP SWAP3 SWAP2 POP POP JUMP JUMPDEST PUSH2 0x8D1 DUP2 PUSH2 0x86A JUMP JUMPDEST DUP3 MSTORE POP POP JUMP JUMPDEST PUSH0 PUSH1 0x20 DUP3 ADD SWAP1 POP PUSH2 0x8EA PUSH0 DUP4 ADD DUP5 PUSH2 0x8C8 JUMP JUMPDEST SWAP3 SWAP2 POP POP JUMP JUMPDEST PUSH0 DUP2 MLOAD SWAP1 POP SWAP2 SWAP1 POP JUMP JUMPDEST PUSH0 DUP3 DUP3 MSTORE PUSH1 0x20 DUP3 ADD SWAP1 POP SWAP3 SWAP2 POP POP JUMP JUMPDEST DUP3 DUP2 DUP4 MCOPY PUSH0 DUP4 DUP4 ADD MSTORE POP POP POP JUMP JUMPDEST PUSH0 PUSH1 0x1F NOT PUSH1 0x1F DUP4 ADD AND SWAP1 POP SWAP2 SWAP1 POP JUMP JUMPDEST PUSH0 PUSH2 0x932 DUP3 PUSH2 0x8F0 JUMP JUMPDEST PUSH2 0x93C DUP2 DUP6 PUSH2 0x8FA JUMP JUMPDEST SWAP4 POP PUSH2 0x94C DUP2 DUP6 PUSH1 0x20 DUP7 ADD PUSH2 0x90A JUMP JUMPDEST PUSH2 0x955 DUP2 PUSH2 0x918 JUMP JUMPDEST DUP5 ADD SWAP2 POP POP SWAP3 SWAP2 POP POP JUMP JUMPDEST PUSH0 PUSH1 0x60 DUP3 ADD SWAP1 POP PUSH2 0x973 PUSH0 DUP4 ADD DUP7 PUSH2 0x8C8 JUMP JUMPDEST DUP2 DUP2 SUB PUSH1 0x20 DUP4 ADD MSTORE PUSH2 0x985 DUP2 DUP6 PUSH2 0x928 JUMP JUMPDEST SWAP1 POP PUSH2 0x994 PUSH1 0x40 DUP4 ADD DUP5 PUSH2 0x8C8 JUMP JUMPDEST SWAP5 SWAP4 POP POP POP POP JUMP JUMPDEST PUSH0 DUP1 REVERT JUMPDEST PUSH0 DUP1 REVERT JUMPDEST PUSH32 0x4E487B7100000000000000000000000000000000000000000000000000000000 PUSH0 MSTORE PUSH1 0x41 PUSH1 0x4 MSTORE PUSH1 0x24 PUSH0 REVERT JUMPDEST PUSH2 0x9DA DUP3 PUSH2 0x918 JUMP JUMPDEST DUP2 ADD DUP2 DUP2 LT PUSH8 0xFFFFFFFFFFFFFFFF DUP3 GT OR ISZERO PUSH2 0x9F9 JUMPI PUSH2 0x9F8 PUSH2 0x9A4 JUMP JUMPDEST JUMPDEST DUP1 PUSH1 0x40 MSTORE POP POP POP JUMP JUMPDEST PUSH0 PUSH2 0xA0B PUSH2 0x859 JUMP JUMPDEST SWAP1 POP PUSH2 0xA17 DUP3 DUP3 PUSH2 0x9D1 JUMP JUMPDEST SWAP2 SWAP1 POP JUMP JUMPDEST PUSH0 PUSH8 0xFFFFFFFFFFFFFFFF DUP3 GT ISZERO PUSH2 0xA36 JUMPI PUSH2 0xA35 PUSH2 0x9A4 JUMP JUMPDEST JUMPDEST PUSH2 0xA3F DUP3 PUSH2 0x918 JUMP JUMPDEST SWAP1 POP PUSH1 0x20 DUP2 ADD SWAP1 POP SWAP2 SWAP1 POP JUMP JUMPDEST DUP3 DUP2 DUP4 CALLDATACOPY PUSH0 DUP4 DUP4 ADD MSTORE POP POP POP JUMP JUMPDEST PUSH0 PUSH2 0xA6C PUSH2 0xA67 DUP5 PUSH2 0xA1C JUMP JUMPDEST PUSH2 0xA02 JUMP JUMPDEST SWAP1 POP DUP3 DUP2 MSTORE PUSH1 0x20 DUP2 ADD DUP5 DUP5 DUP5 ADD GT ISZERO PUSH2 0xA88 JUMPI PUSH2 0xA87 PUSH2 0x9A0 JUMP JUMPDEST JUMPDEST PUSH2 0xA93 DUP5 DUP3 DUP6 PUSH2 0xA4C JUMP JUMPDEST POP SWAP4 SWAP3 POP POP POP JUMP JUMPDEST PUSH0 DUP3 PUSH1 0x1F DUP4 ADD SLT PUSH2 0xAAF JUMPI PUSH2 0xAAE PUSH2 0x99C JUMP JUMPDEST JUMPDEST DUP2 CALLDATALOAD PUSH2 0xABF DUP5 DUP3 PUSH1 0x20 DUP7 ADD PUSH2 0xA5A JUMP JUMPDEST SWAP2 POP POP SWAP3 SWAP2 POP POP JUMP JUMPDEST PUSH0 PUSH1 0x20 DUP3 DUP5 SUB SLT ISZERO PUSH2 0xADD JUMPI PUSH2 0xADC PUSH2 0x862 JUMP JUMPDEST JUMPDEST PUSH0 DUP3 ADD CALLDATALOAD PUSH8 0xFFFFFFFFFFFFFFFF DUP2 GT ISZERO PUSH2 0xAFA JUMPI PUSH2 0xAF9 PUSH2 0x866 JUMP JUMPDEST JUMPDEST PUSH2 0xB06 DUP5 DUP3 DUP6 ADD PUSH2 0xA9B JUMP JUMPDEST SWAP2 POP POP SWAP3 SWAP2 POP POP JUMP JUMPDEST PUSH0 PUSH1 0x40 DUP3 ADD SWAP1 POP DUP2 DUP2 SUB PUSH0 DUP4 ADD MSTORE PUSH2 0xB27 DUP2 DUP6 PUSH2 0x928 JUMP JUMPDEST SWAP1 POP PUSH2 0xB36 PUSH1 0x20 DUP4 ADD DUP5 PUSH2 0x8C8 JUMP JUMPDEST SWAP4 SWAP3 POP POP POP JUMP JUMPDEST PUSH0 PUSH20 0xFFFFFFFFFFFFFFFFFFFFFFFFFFFFFFFFFFFFFFFF DUP3 AND SWAP1 POP SWAP2 SWAP1 POP JUMP JUMPDEST PUSH0 PUSH2 0xB66 DUP3 PUSH2 0xB3D JUMP JUMPDEST SWAP1 POP SWAP2 SWAP1 POP JUMP JUMPDEST PUSH2 0xB76 DUP2 PUSH2 0xB5C JUMP JUMPDEST DUP2 EQ PUSH2 0xB80 JUMPI PUSH0 DUP1 REVERT JUMPDEST POP JUMP JUMPDEST PUSH0 DUP2 CALLDATALOAD SWAP1 POP PUSH2 0xB91 DUP2 PUSH2 0xB6D JUMP JUMPDEST SWAP3 SWAP2 POP POP JUMP JUMPDEST PUSH0 PUSH1 0x20 DUP3 DUP5 SUB SLT ISZERO PUSH2 0xBAC JUMPI PUSH2 0xBAB PUSH2 0x862 JUMP JUMPDEST JUMPDEST PUSH0 PUSH2 0xBB9 DUP5 DUP3 DUP6 ADD PUSH2 0xB83 JUMP JUMPDEST SWAP2 POP POP SWAP3 SWAP2 POP POP JUMP JUMPDEST PUSH0 DUP2 ISZERO ISZERO SWAP1 POP SWAP2 SWAP1 POP JUMP JUMPDEST PUSH2 0xBD6 DUP2 PUSH2 0xBC2 JUMP JUMPDEST DUP3 MSTORE POP POP JUMP JUMPDEST PUSH0 PUSH1 0x20 DUP3 ADD SWAP1 POP PUSH2 0xBEF PUSH0 DUP4 ADD DUP5 PUSH2 0xBCD JUMP JUMPDEST SWAP3 SWAP2 POP POP JUMP JUMPDEST PUSH0 DUP2 MLOAD SWAP1 POP SWAP2 SWAP1 POP JUMP JUMPDEST PUSH0 DUP3 DUP3 MSTORE PUSH1 0x20 DUP3 ADD SWAP1 POP SWAP3 SWAP2 POP POP JUMP JUMPDEST PUSH0 DUP2 SWAP1 POP PUSH1 0x20 DUP3 ADD SWAP1 POP SWAP2 SWAP1 POP JUMP JUMPDEST PUSH2 0xC27 DUP2 PUSH2 0x86A JUMP JUMPDEST DUP3 MSTORE POP POP JUMP JUMPDEST PUSH0 DUP3 DUP3 MSTORE PUSH1 0x20 DUP3 ADD SWAP1 POP SWAP3 SWAP2 POP POP JUMP JUMPDEST PUSH0 PUSH2 0xC47 DUP3 PUSH2 0x8F0 JUMP JUMPDEST PUSH2 0xC51 DUP2 DUP6 PUSH2 0xC2D JUMP JUMPDEST SWAP4 POP PUSH2 0xC61 DUP2 DUP6 PUSH1 0x20 DUP7 ADD PUSH2 0x90A JUMP JUMPDEST PUSH2 0xC6A DUP2 PUSH2 0x918 JUMP JUMPDEST DUP5 ADD SWAP2 POP POP SWAP3 SWAP2 POP POP JUMP JUMPDEST PUSH0 PUSH1 0x60 DUP4 ADD PUSH0 DUP4 ADD MLOAD PUSH2 0xC8A PUSH0 DUP7 ADD DUP3 PUSH2 0xC1E JUMP JUMPDEST POP PUSH1 0x20 DUP4 ADD MLOAD DUP5 DUP3 SUB PUSH1 0x20 DUP7 ADD MSTORE PUSH2 0xCA2 DUP3 DUP3 PUSH2 0xC3D JUMP JUMPDEST SWAP2 POP POP PUSH1 0x40 DUP4 ADD MLOAD PUSH2 0xCB7 PUSH1 0x40 DUP7 ADD DUP3 PUSH2 0xC1E JUMP JUMPDEST POP DUP1 SWAP2 POP POP SWAP3 SWAP2 POP POP JUMP JUMPDEST PUSH0 PUSH2 0xCCD DUP4 DUP4 PUSH2 0xC75 JUMP JUMPDEST SWAP1 POP SWAP3 SWAP2 POP POP JUMP JUMPDEST PUSH0 PUSH1 0x20 DUP3 ADD SWAP1 POP SWAP2 SWAP1 POP JUMP JUMPDEST PUSH0 PUSH2 0xCEB DUP3 PUSH2 0xBF5 JUMP JUMPDEST PUSH2 0xCF5 DUP2 DUP6 PUSH2 0xBFF JUMP JUMPDEST SWAP4 POP DUP4 PUSH1 0x20 DUP3 MUL DUP6 ADD PUSH2 0xD07 DUP6 PUSH2 0xC0F JUMP JUMPDEST DUP1 PUSH0 JUMPDEST DUP6 DUP2 LT ISZERO PUSH2 0xD42 JUMPI DUP5 DUP5 SUB DUP10 MSTORE DUP2 MLOAD PUSH2 0xD23 DUP6 DUP3 PUSH2 0xCC2 JUMP JUMPDEST SWAP5 POP PUSH2 0xD2E DUP4 PUSH2 0xCD5 JUMP JUMPDEST SWAP3 POP PUSH1 0x20 DUP11 ADD SWAP10 POP POP PUSH1 0x1 DUP2 ADD SWAP1 POP PUSH2 0xD0A JUMP JUMPDEST POP DUP3 SWAP8 POP DUP8 SWAP6 POP POP POP POP POP POP SWAP3 SWAP2 POP POP JUMP JUMPDEST PUSH0 PUSH1 0x20 DUP3 ADD SWAP1 POP DUP2 DUP2 SUB PUSH0 DUP4 ADD MSTORE PUSH2 0xD6C DUP2 DUP5 PUSH2 0xCE1 JUMP JUMPDEST SWAP1 POP SWAP3 SWAP2 POP POP JUMP JUMPDEST PUSH2 0xD7D DUP2 PUSH2 0xB5C JUMP JUMPDEST DUP3 MSTORE POP POP JUMP JUMPDEST PUSH0 PUSH1 0x20 DUP3 ADD SWAP1 POP PUSH2 0xD96 PUSH0 DUP4 ADD DUP5 PUSH2 0xD74 JUMP JUMPDEST SWAP3 SWAP2 POP POP JUMP JUMPDEST PUSH32 0x596F75206861766520616C726561647920766F7465642E000000000000000000 PUSH0 DUP3 ADD MSTORE POP JUMP JUMPDEST PUSH0 PUSH2 0xDD0 PUSH1 0x17 DUP4 PUSH2 0x8FA JUMP JUMPDEST SWAP2 POP PUSH2 0xDDB DUP3 PUSH2 0xD9C JUMP JUMPDEST PUSH1 0x20 DUP3 ADD SWAP1 POP SWAP2 SWAP1 POP JUMP JUMPDEST PUSH0 PUSH1 0x20 DUP3 ADD SWAP1 POP DUP2 DUP2 SUB PUSH0 DUP4 ADD MSTORE PUSH2 0xDFD DUP2 PUSH2 0xDC4 JUMP JUMPDEST SWAP1 POP SWAP2 SWAP1 POP JUMP JUMPDEST PUSH32 0x496E76616C69642063616E6469646174652E0000000000000000000000000000 PUSH0 DUP3 ADD MSTORE POP JUMP JUMPDEST PUSH0 PUSH2 0xE38 PUSH1 0x12 DUP4 PUSH2 0x8FA JUMP JUMPDEST SWAP2 POP PUSH2 0xE43 DUP3 PUSH2 0xE04 JUMP JUMPDEST PUSH1 0x20 DUP3 ADD SWAP1 POP SWAP2 SWAP1 POP JUMP JUMPDEST PUSH0 PUSH1 0x20 DUP3 ADD SWAP1 POP DUP2 DUP2 SUB PUSH0 DUP4 ADD MSTORE PUSH2 0xE65 DUP2 PUSH2 0xE2C JUMP JUMPDEST SWAP1 POP SWAP2 SWAP1 POP JUMP JUMPDEST PUSH32 0x4E487B7100000000000000000000000000000000000000000000000000000000 PUSH0 MSTORE PUSH1 0x11 PUSH1 0x4 MSTORE PUSH1 0x24 PUSH0 REVERT JUMPDEST PUSH0 PUSH2 0xEA3 DUP3 PUSH2 0x86A JUMP JUMPDEST SWAP2 POP PUSH32 0xFFFFFFFFFFFFFFFFFFFFFFFFFFFFFFFFFFFFFFFFFFFFFFFFFFFFFFFFFFFFFFFF DUP3 SUB PUSH2 0xED5 JUMPI PUSH2 0xED4 PUSH2 0xE6C JUMP JUMPDEST JUMPDEST PUSH1 0x1 DUP3 ADD SWAP1 POP SWAP2 SWAP1 POP JUMP JUMPDEST PUSH32 0x4E487B7100000000000000000000000000000000000000000000000000000000 PUSH0 MSTORE PUSH1 0x22 PUSH1 0x4 MSTORE PUSH1 0x24 PUSH0 REVERT JUMPDEST PUSH0 PUSH1 0x2 DUP3 DIV SWAP1 POP PUSH1 0x1 DUP3 AND DUP1 PUSH2 0xF24 JUMPI PUSH1 0x7F DUP3 AND SWAP2 POP JUMPDEST PUSH1 0x20 DUP3 LT DUP2 SUB PUSH2 0xF37 JUMPI PUSH2 0xF36 PUSH2 0xEE0 JUMP JUMPDEST JUMPDEST POP SWAP2 SWAP1 POP JUMP JUMPDEST PUSH32 0x4F6E6C792061646D696E2063616E206164642063616E64696461746573000000 PUSH0 DUP3 ADD MSTORE POP JUMP JUMPDEST PUSH0 PUSH2 0xF71 PUSH1 0x1D DUP4 PUSH2 0x8FA JUMP JUMPDEST SWAP2 POP PUSH2 0xF7C DUP3 PUSH2 0xF3D JUMP JUMPDEST PUSH1 0x20 DUP3 ADD SWAP1 POP SWAP2 SWAP1 POP JUMP JUMPDEST PUSH0 PUSH1 0x20 DUP3 ADD SWAP1 POP DUP2 DUP2 SUB PUSH0 DUP4 ADD MSTORE PUSH2 0xF9E DUP2 PUSH2 0xF65 JUMP JUMPDEST SWAP1 POP SWAP2 SWAP1 POP JUMP JUMPDEST PUSH0 DUP2 SWAP1 POP DUP2 PUSH0 MSTORE PUSH1 0x20 PUSH0 KECCAK256 SWAP1 POP SWAP2 SWAP1 POP JUMP JUMPDEST PUSH0 PUSH1 0x20 PUSH1 0x1F DUP4 ADD DIV SWAP1 POP SWAP2 SWAP1 POP JUMP JUMPDEST PUSH0 DUP3 DUP3 SHL SWAP1 POP SWAP3 SWAP2 POP POP JUMP JUMPDEST PUSH0 PUSH1 0x8 DUP4 MUL PUSH2 0x1001 PUSH32 0xFFFFFFFFFFFFFFFFFFFFFFFFFFFFFFFFFFFFFFFFFFFFFFFFFFFFFFFFFFFFFFFF DUP3 PUSH2 0xFC6 JUMP JUMPDEST PUSH2 0x100B DUP7 DUP4 PUSH2 0xFC6 JUMP JUMPDEST SWAP6 POP DUP1 NOT DUP5 AND SWAP4 POP DUP1 DUP7 AND DUP5 OR SWAP3 POP POP POP SWAP4 SWAP3 POP POP POP JUMP JUMPDEST PUSH0 DUP2 SWAP1 POP SWAP2 SWAP1 POP JUMP JUMPDEST PUSH0 PUSH2 0x1046 PUSH2 0x1041 PUSH2 0x103C DUP5 PUSH2 0x86A JUMP JUMPDEST PUSH2 0x1023 JUMP JUMPDEST PUSH2 0x86A JUMP JUMPDEST SWAP1 POP SWAP2 SWAP1 POP JUMP JUMPDEST PUSH0 DUP2 SWAP1 POP SWAP2 SWAP1 POP JUMP JUMPDEST PUSH2 0x105F DUP4 PUSH2 0x102C JUMP JUMPDEST PUSH2 0x1073 PUSH2 0x106B DUP3 PUSH2 0x104D JUMP JUMPDEST DUP5 DUP5 SLOAD PUSH2 0xFD2 JUMP JUMPDEST DUP3 SSTORE POP POP POP POP JUMP JUMPDEST PUSH0 SWAP1 JUMP JUMPDEST PUSH2 0x1087 PUSH2 0x107B JUMP JUMPDEST PUSH2 0x1092 DUP2 DUP5 DUP5 PUSH2 0x1056 JUMP JUMPDEST POP POP POP JUMP JUMPDEST JUMPDEST DUP2 DUP2 LT ISZERO PUSH2 0x10B5 JUMPI PUSH2 0x10AA PUSH0 DUP3 PUSH2 0x107F JUMP JUMPDEST PUSH1 0x1 DUP2 ADD SWAP1 POP PUSH2 0x1098 JUMP JUMPDEST POP POP JUMP JUMPDEST PUSH1 0x1F DUP3 GT ISZERO PUSH2 0x10FA JUMPI PUSH2 0x10CB DUP2 PUSH2 0xFA5 JUMP JUMPDEST PUSH2 0x10D4 DUP5 PUSH2 0xFB7 JUMP JUMPDEST DUP2 ADD PUSH1 0x20 DUP6 LT ISZERO PUSH2 0x10E3 JUMPI DUP2 SWAP1 POP JUMPDEST PUSH2 0x10F7 PUSH2 0x10EF DUP6 PUSH2 0xFB7 JUMP JUMPDEST DUP4 ADD DUP3 PUSH2 0x1097 JUMP JUMPDEST POP POP JUMPDEST POP POP POP JUMP JUMPDEST PUSH0 DUP3 DUP3 SHR SWAP1 POP SWAP3 SWAP2 POP POP JUMP JUMPDEST PUSH0 PUSH2 0x111A PUSH0 NOT DUP5 PUSH1 0x8 MUL PUSH2 0x10FF JUMP JUMPDEST NOT DUP1 DUP4 AND SWAP2 POP POP SWAP3 SWAP2 POP POP JUMP JUMPDEST PUSH0 PUSH2 0x1132 DUP4 DUP4 PUSH2 0x110B JUMP JUMPDEST SWAP2 POP DUP3 PUSH1 0x2 MUL DUP3 OR SWAP1 POP SWAP3 SWAP2 POP POP JUMP JUMPDEST PUSH2 0x114B DUP3 PUSH2 0x8F0 JUMP JUMPDEST PUSH8 0xFFFFFFFFFFFFFFFF DUP2 GT ISZERO PUSH2 0x1164 JUMPI PUSH2 0x1163 PUSH2 0x9A4 JUMP JUMPDEST JUMPDEST PUSH2 0x116E DUP3 SLOAD PUSH2 0xF0D JUMP JUMPDEST PUSH2 0x1179 DUP3 DUP3 DUP6 PUSH2 0x10B9 JUMP JUMPDEST PUSH0 PUSH1 0x20 SWAP1 POP PUSH1 0x1F DUP4 GT PUSH1 0x1 DUP2 EQ PUSH2 0x11AA JUMPI PUSH0 DUP5 ISZERO PUSH2 0x1198 JUMPI DUP3 DUP8 ADD MLOAD SWAP1 POP JUMPDEST PUSH2 0x11A2 DUP6 DUP3 PUSH2 0x1127 JUMP JUMPDEST DUP7 SSTORE POP PUSH2 0x1209 JUMP JUMPDEST PUSH1 0x1F NOT DUP5 AND PUSH2 0x11B8 DUP7 PUSH2 0xFA5 JUMP JUMPDEST PUSH0 JUMPDEST DUP3 DUP2 LT ISZERO PUSH2 0x11DF JUMPI DUP5 DUP10 ADD MLOAD DUP3 SSTORE PUSH1 0x1 DUP3 ADD SWAP2 POP PUSH1 0x20 DUP6 ADD SWAP5 POP PUSH1 0x20 DUP2 ADD SWAP1 POP PUSH2 0x11BA JUMP JUMPDEST DUP7 DUP4 LT ISZERO PUSH2 0x11FC JUMPI DUP5 DUP10 ADD MLOAD PUSH2 0x11F8 PUSH1 0x1F DUP10 AND DUP3 PUSH2 0x110B JUMP JUMPDEST DUP4 SSTORE POP JUMPDEST PUSH1 0x1 PUSH1 0x2 DUP9 MUL ADD DUP9 SSTORE POP POP POP JUMPDEST POP POP POP POP POP POP JUMP JUMPDEST PUSH32 0x4E487B7100000000000000000000000000000000000000000000000000000000 PUSH0 MSTORE PUSH1 0x32 PUSH1 0x4 MSTORE PUSH1 0x24 PUSH0 REVERT INVALID LOG2 PUSH5 0x6970667358 0x22 SLT KECCAK256 REVERT PUSH12 0xC5DD80C797E23F382A0633BF 0xC7 0x2D DUP8 SSTORE 0xF6 SWAP15 DUP6 0xA5 DUP8 0xF8 0xC2 PUSH6 0xA19FDAE229B7 PUSH5 0x736F6C6343 STOP ADDMOD BYTE STOP CALLER "
				},
				"gasEstimates": {
					"creation": {
						"codeDepositCost": "944800",
						"executionCost": "25244",
						"totalCost": "970044"
					},
					"external": {
						"addCandidate(string)": "infinite",
						"admin()": "2593",
						"candidateIds(uint256)": "infinite",
						"candidates(uint256)": "infinite",
						"candidatesCount()": "2492",
						"getResults()": "infinite",
						"listCandidates()": "infinite",
						"totalVotes()": "2470",
						"vote(uint256)": "infinite",
						"voters(address)": "2877"
					}
				},
				"methodIdentifiers": {
					"addCandidate(string)": "462e91ec",
					"admin()": "f851a440",
					"candidateIds(uint256)": "03016130",
					"candidates(uint256)": "3477ee2e",
					"candidatesCount()": "2d35a8a2",
					"getResults()": "4717f97c",
					"listCandidates()": "f0f5274e",
					"totalVotes()": "0d15fd77",
					"vote(uint256)": "0121b93f",
					"voters(address)": "a3ec138d"
				}
			},
			"storageLayout": {
				"storage": [
					{
						"astId": 10,
						"contract": "voting.sol:Voting",
						"label": "admin",
						"offset": 0,
						"slot": "0",
						"type": "t_address"
					},
					{
						"astId": 14,
						"contract": "voting.sol:Voting",
						"label": "voters",
						"offset": 0,
						"slot": "1",
						"type": "t_mapping(t_address,t_bool)"
					},
					{
						"astId": 19,
						"contract": "voting.sol:Voting",
						"label": "candidates",
						"offset": 0,
						"slot": "2",
						"type": "t_mapping(t_uint256,t_struct(Candidate)8_storage)"
					},
					{
						"astId": 21,
						"contract": "voting.sol:Voting",
						"label": "candidatesCount",
						"offset": 0,
						"slot": "3",
						"type": "t_uint256"
					},
					{
						"astId": 23,
						"contract": "voting.sol:Voting",
						"label": "totalVotes",
						"offset": 0,
						"slot": "4",
						"type": "t_uint256"
					},
					{
						"astId": 26,
						"contract": "voting.sol:Voting",
						"label": "candidateIds",
						"offset": 0,
						"slot": "5",
						"type": "t_array(t_uint256)dyn_storage"
					}
				],
				"types": {
					"t_address": {
						"encoding": "inplace",
						"label": "address",
						"numberOfBytes": "20"
					},
					"t_array(t_uint256)dyn_storage": {
						"base": "t_uint256",
						"encoding": "dynamic_array",
						"label": "uint256[]",
						"numberOfBytes": "32"
					},
					"t_bool": {
						"encoding": "inplace",
						"label": "bool",
						"numberOfBytes": "1"
					},
					"t_mapping(t_address,t_bool)": {
						"encoding": "mapping",
						"key": "t_address",
						"label": "mapping(address => bool)",
						"numberOfBytes": "32",
						"value": "t_bool"
					},
					"t_mapping(t_uint256,t_struct(Candidate)8_storage)": {
						"encoding": "mapping",
						"key": "t_uint256",
						"label": "mapping(uint256 => struct Voting.Candidate)",
						"numberOfBytes": "32",
						"value": "t_struct(Candidate)8_storage"
					},
					"t_string_storage": {
						"encoding": "bytes",
						"label": "string",
						"numberOfBytes": "32"
					},
					"t_struct(Candidate)8_storage": {
						"encoding": "inplace",
						"label": "struct Voting.Candidate",
						"members": [
							{
								"astId": 3,
								"contract": "voting.sol:Voting",
								"label": "id",
								"offset": 0,
								"slot": "0",
								"type": "t_uint256"
							},
							{
								"astId": 5,
								"contract": "voting.sol:Voting",
								"label": "name",
								"offset": 0,
								"slot": "1",
								"type": "t_string_storage"
							},
							{
								"astId": 7,
								"contract": "voting.sol:Voting",
								"label": "voteCount",
								"offset": 0,
								"slot": "2",
								"type": "t_uint256"
							}
						],
						"numberOfBytes": "96"
					},
					"t_uint256": {
						"encoding": "inplace",
						"label": "uint256",
						"numberOfBytes": "32"
					}
				}
			},
			"userdoc": {
				"kind": "user",
				"methods": {},
				"version": 1
			}
		}
	}
}